{
  "contractName": "FlightSuretyData",
  "abi": [
    {
      "inputs": [
        {
          "name": "firstAirline",
          "type": "address"
        }
      ],
      "payable": false,
      "stateMutability": "nonpayable",
      "type": "constructor",
      "signature": "constructor"
    },
    {
      "payable": true,
      "stateMutability": "payable",
      "type": "fallback"
    },
    {
      "anonymous": false,
      "inputs": [
        {
          "indexed": false,
          "name": "newAirline",
          "type": "address"
        }
      ],
      "name": "AirlineRegistred",
      "type": "event",
      "signature": "0xa88979e9c3a309949cfe240ce79fee9aa7bb41965912c05e5a1efadd51ba6818"
    },
    {
      "anonymous": false,
      "inputs": [
        {
          "indexed": false,
          "name": "_address",
          "type": "address"
        }
      ],
      "name": "AirlineFunded",
      "type": "event",
      "signature": "0x3c348ba34685212d5d04f432a9e569b642b180df0227a6b0c899050c4acb7af8"
    },
    {
      "anonymous": false,
      "inputs": [
        {
          "indexed": false,
          "name": "_address",
          "type": "address"
        }
      ],
      "name": "PassengerRegidtered",
      "type": "event",
      "signature": "0x42b32d980767dae2aa3a39faed1245ea1fbcfe737ed2f596dadca50e06127ed5"
    },
    {
      "anonymous": false,
      "inputs": [
        {
          "indexed": false,
          "name": "_address",
          "type": "address"
        },
        {
          "indexed": false,
          "name": "flightKey",
          "type": "bytes32"
        }
      ],
      "name": "PassengerInsured",
      "type": "event",
      "signature": "0x260ad53843f4d27e80bd7cb7700be43d0c0593ccee937f3941b7dea7c6249503"
    },
    {
      "anonymous": false,
      "inputs": [
        {
          "indexed": false,
          "name": "_addresses",
          "type": "address[]"
        },
        {
          "indexed": false,
          "name": "flightKey",
          "type": "bytes32"
        }
      ],
      "name": "PassengerCreditUpdated",
      "type": "event",
      "signature": "0xcce46ac6ff47f9dba295ee7d5d154fe5498fcb89a1ae8ce8bfd60dda136414df"
    },
    {
      "anonymous": false,
      "inputs": [
        {
          "indexed": false,
          "name": "_address",
          "type": "address"
        },
        {
          "indexed": false,
          "name": "amount",
          "type": "uint256"
        }
      ],
      "name": "PassengerPayout",
      "type": "event",
      "signature": "0x89349e79d73c3503dda08b74072e4d2e36d77cb611996df47e720e8f3be97cc0"
    },
    {
      "anonymous": false,
      "inputs": [
        {
          "indexed": false,
          "name": "_x",
          "type": "bytes32[]"
        }
      ],
      "name": "x",
      "type": "event",
      "signature": "0x019e88dad34498501a1ae2077524f8e23e316cb016b9c6050350cf3437519bc1"
    },
    {
      "constant": true,
      "inputs": [],
      "name": "isOperational",
      "outputs": [
        {
          "name": "",
          "type": "bool"
        }
      ],
      "payable": false,
      "stateMutability": "view",
      "type": "function",
      "signature": "0xcd905dff"
    },
    {
      "constant": false,
      "inputs": [
        {
          "name": "mode",
          "type": "bool"
        }
      ],
      "name": "setOperatingStatus",
      "outputs": [],
      "payable": false,
      "stateMutability": "nonpayable",
      "type": "function",
      "signature": "0x110466ed"
    },
    {
      "constant": false,
      "inputs": [
        {
          "name": "contractAddress",
          "type": "address"
        }
      ],
      "name": "authorizeCaller",
      "outputs": [],
      "payable": false,
      "stateMutability": "nonpayable",
      "type": "function",
      "signature": "0x2c388d5d"
    },
    {
      "constant": false,
      "inputs": [
        {
          "name": "contractAddress",
          "type": "address"
        }
      ],
      "name": "deauthorizeCaller",
      "outputs": [],
      "payable": false,
      "stateMutability": "nonpayable",
      "type": "function",
      "signature": "0x6873c21d"
    },
    {
      "constant": true,
      "inputs": [
        {
          "name": "contractAddress",
          "type": "address"
        }
      ],
      "name": "isCallerAuthorized",
      "outputs": [
        {
          "name": "",
          "type": "bool"
        }
      ],
      "payable": false,
      "stateMutability": "view",
      "type": "function",
      "signature": "0x4929d081"
    },
    {
      "constant": true,
      "inputs": [
        {
          "name": "airline",
          "type": "address"
        }
      ],
      "name": "isRegistered",
      "outputs": [
        {
          "name": "",
          "type": "bool"
        }
      ],
      "payable": false,
      "stateMutability": "view",
      "type": "function",
      "signature": "0xc3c5a547"
    },
    {
      "constant": true,
      "inputs": [
        {
          "name": "airline",
          "type": "address"
        }
      ],
      "name": "isFunded",
      "outputs": [
        {
          "name": "",
          "type": "bool"
        }
      ],
      "payable": false,
      "stateMutability": "view",
      "type": "function",
      "signature": "0x5689b249"
    },
    {
      "constant": true,
      "inputs": [
        {
          "name": "_address",
          "type": "address"
        }
      ],
      "name": "isPassenger",
      "outputs": [
        {
          "name": "",
          "type": "bool"
        }
      ],
      "payable": false,
      "stateMutability": "view",
      "type": "function",
      "signature": "0x1dd13a1d"
    },
    {
      "constant": false,
      "inputs": [
        {
          "name": "_newAirline",
          "type": "address"
        }
      ],
      "name": "registerAirline",
      "outputs": [
        {
          "name": "",
          "type": "bool"
        }
      ],
      "payable": false,
      "stateMutability": "nonpayable",
      "type": "function",
      "signature": "0xbdfd9877"
    },
    {
      "constant": true,
      "inputs": [],
      "name": "getRegisteredAirlines",
      "outputs": [
        {
          "name": "",
          "type": "address[]"
        }
      ],
      "payable": false,
      "stateMutability": "view",
      "type": "function",
      "signature": "0xc23bcf09"
    },
    {
      "constant": true,
      "inputs": [],
      "name": "getNumberOfRegistredAirline",
      "outputs": [
        {
          "name": "",
          "type": "uint256"
        }
      ],
      "payable": false,
      "stateMutability": "view",
      "type": "function",
      "signature": "0x679d46e2"
    },
    {
      "constant": false,
      "inputs": [],
      "name": "fundAirline",
      "outputs": [],
      "payable": false,
      "stateMutability": "nonpayable",
      "type": "function",
      "signature": "0x9ed18927"
    },
    {
      "constant": true,
      "inputs": [],
      "name": "getFundedAirlines",
      "outputs": [
        {
          "name": "",
          "type": "address[]"
        }
      ],
      "payable": false,
      "stateMutability": "view",
      "type": "function",
      "signature": "0x77ed850a"
    },
    {
      "constant": false,
      "inputs": [
        {
          "name": "_address",
          "type": "address"
        }
      ],
      "name": "registerPassenger",
      "outputs": [],
      "payable": false,
      "stateMutability": "nonpayable",
      "type": "function",
      "signature": "0x94c15694"
    },
    {
      "constant": true,
      "inputs": [],
      "name": "getPassengers",
      "outputs": [
        {
          "name": "",
          "type": "address[]"
        }
      ],
      "payable": false,
      "stateMutability": "view",
      "type": "function",
      "signature": "0x6ac23fdc"
    },
    {
      "constant": true,
      "inputs": [
        {
          "name": "airline",
          "type": "address"
        },
        {
          "name": "flight",
          "type": "string"
        },
        {
          "name": "timestamp",
          "type": "uint256"
        }
      ],
      "name": "getFlightKey",
      "outputs": [
        {
          "name": "",
          "type": "bytes32"
        }
      ],
      "payable": false,
      "stateMutability": "pure",
      "type": "function",
      "signature": "0xdfc0dff0"
    },
    {
      "constant": false,
      "inputs": [
        {
          "name": "flightKey",
          "type": "bytes32"
        },
        {
          "name": "amount",
          "type": "uint256"
        }
      ],
      "name": "buy",
      "outputs": [],
      "payable": true,
      "stateMutability": "payable",
      "type": "function",
      "signature": "0x0ddeb632"
    },
    {
      "constant": false,
      "inputs": [
        {
          "name": "flightKey",
          "type": "bytes32"
        }
      ],
      "name": "creditInsurees",
      "outputs": [],
      "payable": true,
      "stateMutability": "payable",
      "type": "function",
      "signature": "0xcc2f6eba"
    },
    {
      "constant": false,
      "inputs": [],
      "name": "pay",
      "outputs": [],
      "payable": true,
      "stateMutability": "payable",
      "type": "function",
      "signature": "0x1b9265b8"
    },
    {
      "constant": false,
      "inputs": [],
      "name": "fund",
      "outputs": [],
      "payable": true,
      "stateMutability": "payable",
      "type": "function",
      "signature": "0xb60d4288"
    }
  ],
  "bytecode": "0x60806040526001600060146101000a81548160ff02191690831515021790555034801561002b57600080fd5b506040516020806128268339810180604052602081101561004b57600080fd5b8101908080519060200190929190505050336000806101000a81548173ffffffffffffffffffffffffffffffffffffffff021916908373ffffffffffffffffffffffffffffffffffffffff16021790555060048190806001815401808255809150509060018203906000526020600020016000909192909190916101000a81548173ffffffffffffffffffffffffffffffffffffffff021916908373ffffffffffffffffffffffffffffffffffffffff1602179055505060405180606001604052808273ffffffffffffffffffffffffffffffffffffffff16815260200160011515815260200160001515815250600260008373ffffffffffffffffffffffffffffffffffffffff1673ffffffffffffffffffffffffffffffffffffffff16815260200190815260200160002060008201518160000160006101000a81548173ffffffffffffffffffffffffffffffffffffffff021916908373ffffffffffffffffffffffffffffffffffffffff16021790555060208201518160000160146101000a81548160ff02191690831515021790555060408201518160000160156101000a81548160ff02191690831515021790555090505050612614806102126000396000f3fe60806040526004361061013c576000357c01000000000000000000000000000000000000000000000000000000009004806377ed850a116100bd578063c23bcf0911610081578063c23bcf0914610580578063c3c5a547146105ec578063cc2f6eba14610655578063cd905dff14610683578063dfc0dff0146106b25761013c565b806377ed850a1461043957806394c15694146104a55780639ed18927146104f6578063b60d42881461050d578063bdfd9877146105175761013c565b80634929d081116101045780634929d0811461027f5780635689b249146102e8578063679d46e2146103515780636873c21d1461037c5780636ac23fdc146103cd5761013c565b80630ddeb63214610146578063110466ed1461017e5780631b9265b8146101bb5780631dd13a1d146101c55780632c388d5d1461022e575b610144610776565b005b61017c6004803603604081101561015c57600080fd5b810190808035906020019092919080359060200190929190505050610778565b005b34801561018a57600080fd5b506101b9600480360360208110156101a157600080fd5b81019080803515159060200190929190505050610b3e565b005b6101c3610c1d565b005b3480156101d157600080fd5b50610214600480360360208110156101e857600080fd5b81019080803573ffffffffffffffffffffffffffffffffffffffff169060200190929190505050611008565b604051808215151515815260200191505060405180910390f35b34801561023a57600080fd5b5061027d6004803603602081101561025157600080fd5b81019080803573ffffffffffffffffffffffffffffffffffffffff169060200190929190505050611061565b005b34801561028b57600080fd5b506102ce600480360360208110156102a257600080fd5b81019080803573ffffffffffffffffffffffffffffffffffffffff16906020019092919050505061117d565b604051808215151515815260200191505060405180910390f35b3480156102f457600080fd5b506103376004803603602081101561030b57600080fd5b81019080803573ffffffffffffffffffffffffffffffffffffffff169060200190929190505050611295565b604051808215151515815260200191505060405180910390f35b34801561035d57600080fd5b506103666112ee565b6040518082815260200191505060405180910390f35b34801561038857600080fd5b506103cb6004803603602081101561039f57600080fd5b81019080803573ffffffffffffffffffffffffffffffffffffffff1690602001909291905050506112fb565b005b3480156103d957600080fd5b506103e261140f565b6040518080602001828103825283818151815260200191508051906020019060200280838360005b8381101561042557808201518184015260208101905061040a565b505050509050019250505060405180910390f35b34801561044557600080fd5b5061044e61149d565b6040518080602001828103825283818151815260200191508051906020019060200280838360005b83811015610491578082015181840152602081019050610476565b505050509050019250505060405180910390f35b3480156104b157600080fd5b506104f4600480360360208110156104c857600080fd5b81019080803573ffffffffffffffffffffffffffffffffffffffff16906020019092919050505061152b565b005b34801561050257600080fd5b5061050b6116df565b005b610515610776565b005b34801561052357600080fd5b506105666004803603602081101561053a57600080fd5b81019080803573ffffffffffffffffffffffffffffffffffffffff1690602001909291905050506119f4565b604051808215151515815260200191505060405180910390f35b34801561058c57600080fd5b50610595611fcb565b6040518080602001828103825283818151815260200191508051906020019060200280838360005b838110156105d85780820151818401526020810190506105bd565b505050509050019250505060405180910390f35b3480156105f857600080fd5b5061063b6004803603602081101561060f57600080fd5b81019080803573ffffffffffffffffffffffffffffffffffffffff169060200190929190505050612059565b604051808215151515815260200191505060405180910390f35b6106816004803603602081101561066b57600080fd5b81019080803590602001909291905050506120b2565b005b34801561068f57600080fd5b50610698612467565b604051808215151515815260200191505060405180910390f35b3480156106be57600080fd5b50610760600480360360608110156106d557600080fd5b81019080803573ffffffffffffffffffffffffffffffffffffffff1690602001909291908035906020019064010000000081111561071257600080fd5b82018360208201111561072457600080fd5b8035906020019184600183028401116401000000008311171561074657600080fd5b90919293919293908035906020019092919050505061247d565b6040518082815260200191505060405180910390f35b565b600060149054906101000a900460ff166107dd576040517f08c379a00000000000000000000000000000000000000000000000000000000081526004018080602001828103825260258152602001806125c46025913960400191505060405180910390fd5b60011515600160003373ffffffffffffffffffffffffffffffffffffffff1673ffffffffffffffffffffffffffffffffffffffff16815260200190815260200160002060009054906101000a900460ff161515146108a3576040517f08c379a00000000000000000000000000000000000000000000000000000000081526004018080602001828103825260188152602001807f43616c6c6572206973206e6f7420617574686f72697a6564000000000000000081525060200191505060405180910390fd5b32600560008273ffffffffffffffffffffffffffffffffffffffff1673ffffffffffffffffffffffffffffffffffffffff16815260200190815260200160002060020160009054906101000a900460ff16610966576040517f08c379a00000000000000000000000000000000000000000000000000000000081526004018080602001828103825260198152602001807f496e76616c69642070617373656e67657220616464726573730000000000000081525060200191505060405180910390fd5b6000600860003273ffffffffffffffffffffffffffffffffffffffff1673ffffffffffffffffffffffffffffffffffffffff168152602001908152602001600020805490501015610a02576040517f08c379a00000000000000000000000000000000000000000000000000000000081526004018080602001828103825260328152602001806125926032913960400191505060405180910390fd5b600760008481526020019081526020016000203290806001815401808255809150509060018203906000526020600020016000909192909190916101000a81548173ffffffffffffffffffffffffffffffffffffffff021916908373ffffffffffffffffffffffffffffffffffffffff1602179055505081600960003273ffffffffffffffffffffffffffffffffffffffff1673ffffffffffffffffffffffffffffffffffffffff1681526020019081526020016000206000858152602001908152602001600020819055507f260ad53843f4d27e80bd7cb7700be43d0c0593ccee937f3941b7dea7c62495033284604051808373ffffffffffffffffffffffffffffffffffffffff1673ffffffffffffffffffffffffffffffffffffffff1681526020018281526020019250505060405180910390a1505050565b6000809054906101000a900473ffffffffffffffffffffffffffffffffffffffff1673ffffffffffffffffffffffffffffffffffffffff163373ffffffffffffffffffffffffffffffffffffffff1614610c00576040517f08c379a000000000000000000000000000000000000000000000000000000000815260040180806020018281038252601c8152602001807f43616c6c6572206973206e6f7420636f6e7472616374206f776e65720000000081525060200191505060405180910390fd5b80600060146101000a81548160ff02191690831515021790555050565b600060149054906101000a900460ff16610c82576040517f08c379a00000000000000000000000000000000000000000000000000000000081526004018080602001828103825260258152602001806125c46025913960400191505060405180910390fd5b60011515600160003373ffffffffffffffffffffffffffffffffffffffff1673ffffffffffffffffffffffffffffffffffffffff16815260200190815260200160002060009054906101000a900460ff16151514610d48576040517f08c379a00000000000000000000000000000000000000000000000000000000081526004018080602001828103825260188152602001807f43616c6c6572206973206e6f7420617574686f72697a6564000000000000000081525060200191505060405180910390fd5b32600560008273ffffffffffffffffffffffffffffffffffffffff1673ffffffffffffffffffffffffffffffffffffffff16815260200190815260200160002060020160009054906101000a900460ff16610e0b576040517f08c379a00000000000000000000000000000000000000000000000000000000081526004018080602001828103825260198152602001807f496e76616c69642070617373656e67657220616464726573730000000000000081525060200191505060405180910390fd5b6000600560003273ffffffffffffffffffffffffffffffffffffffff1673ffffffffffffffffffffffffffffffffffffffff1681526020019081526020016000206001015411610ec3576040517f08c379a00000000000000000000000000000000000000000000000000000000081526004018080602001828103825260128152602001807f5468657265206973206e6f207061796f7574000000000000000000000000000081525060200191505060405180910390fd5b6000600560003273ffffffffffffffffffffffffffffffffffffffff1673ffffffffffffffffffffffffffffffffffffffff1681526020019081526020016000206001015490506000600560003273ffffffffffffffffffffffffffffffffffffffff1673ffffffffffffffffffffffffffffffffffffffff168152602001908152602001600020600101819055503273ffffffffffffffffffffffffffffffffffffffff166108fc829081150290604051600060405180830381858888f19350505050158015610f98573d6000803e3d6000fd5b507f89349e79d73c3503dda08b74072e4d2e36d77cb611996df47e720e8f3be97cc03282604051808373ffffffffffffffffffffffffffffffffffffffff1673ffffffffffffffffffffffffffffffffffffffff1681526020018281526020019250505060405180910390a15050565b6000600560008373ffffffffffffffffffffffffffffffffffffffff1673ffffffffffffffffffffffffffffffffffffffff16815260200190815260200160002060020160009054906101000a900460ff169050919050565b6000809054906101000a900473ffffffffffffffffffffffffffffffffffffffff1673ffffffffffffffffffffffffffffffffffffffff163373ffffffffffffffffffffffffffffffffffffffff1614611123576040517f08c379a000000000000000000000000000000000000000000000000000000000815260040180806020018281038252601c8152602001807f43616c6c6572206973206e6f7420636f6e7472616374206f776e65720000000081525060200191505060405180910390fd5b60018060008373ffffffffffffffffffffffffffffffffffffffff1673ffffffffffffffffffffffffffffffffffffffff16815260200190815260200160002060006101000a81548160ff02191690831515021790555050565b60008060009054906101000a900473ffffffffffffffffffffffffffffffffffffffff1673ffffffffffffffffffffffffffffffffffffffff163373ffffffffffffffffffffffffffffffffffffffff1614611241576040517f08c379a000000000000000000000000000000000000000000000000000000000815260040180806020018281038252601c8152602001807f43616c6c6572206973206e6f7420636f6e7472616374206f776e65720000000081525060200191505060405180910390fd5b600160008373ffffffffffffffffffffffffffffffffffffffff1673ffffffffffffffffffffffffffffffffffffffff16815260200190815260200160002060009054906101000a900460ff169050919050565b6000600260008373ffffffffffffffffffffffffffffffffffffffff1673ffffffffffffffffffffffffffffffffffffffff16815260200190815260200160002060000160159054906101000a900460ff169050919050565b6000600480549050905090565b6000809054906101000a900473ffffffffffffffffffffffffffffffffffffffff1673ffffffffffffffffffffffffffffffffffffffff163373ffffffffffffffffffffffffffffffffffffffff16146113bd576040517f08c379a000000000000000000000000000000000000000000000000000000000815260040180806020018281038252601c8152602001807f43616c6c6572206973206e6f7420636f6e7472616374206f776e65720000000081525060200191505060405180910390fd5b600160008273ffffffffffffffffffffffffffffffffffffffff1673ffffffffffffffffffffffffffffffffffffffff16815260200190815260200160002060006101000a81549060ff021916905550565b6060600680548060200260200160405190810160405280929190818152602001828054801561149357602002820191906000526020600020905b8160009054906101000a900473ffffffffffffffffffffffffffffffffffffffff1673ffffffffffffffffffffffffffffffffffffffff1681526020019060010190808311611449575b5050505050905090565b6060600380548060200260200160405190810160405280929190818152602001828054801561152157602002820191906000526020600020905b8160009054906101000a900473ffffffffffffffffffffffffffffffffffffffff1673ffffffffffffffffffffffffffffffffffffffff16815260200190600101908083116114d7575b5050505050905090565b60405180606001604052808273ffffffffffffffffffffffffffffffffffffffff1681526020016000815260200160011515815250600560008373ffffffffffffffffffffffffffffffffffffffff1673ffffffffffffffffffffffffffffffffffffffff16815260200190815260200160002060008201518160000160006101000a81548173ffffffffffffffffffffffffffffffffffffffff021916908373ffffffffffffffffffffffffffffffffffffffff1602179055506020820151816001015560408201518160020160006101000a81548160ff02191690831515021790555090505060068190806001815401808255809150509060018203906000526020600020016000909192909190916101000a81548173ffffffffffffffffffffffffffffffffffffffff021916908373ffffffffffffffffffffffffffffffffffffffff160217905550507f42b32d980767dae2aa3a39faed1245ea1fbcfe737ed2f596dadca50e06127ed581604051808273ffffffffffffffffffffffffffffffffffffffff1673ffffffffffffffffffffffffffffffffffffffff16815260200191505060405180910390a150565b600060149054906101000a900460ff16611744576040517f08c379a00000000000000000000000000000000000000000000000000000000081526004018080602001828103825260258152602001806125c46025913960400191505060405180910390fd5b60011515600160003373ffffffffffffffffffffffffffffffffffffffff1673ffffffffffffffffffffffffffffffffffffffff16815260200190815260200160002060009054906101000a900460ff1615151461180a576040517f08c379a00000000000000000000000000000000000000000000000000000000081526004018080602001828103825260188152602001807f43616c6c6572206973206e6f7420617574686f72697a6564000000000000000081525060200191505060405180910390fd5b32600260008273ffffffffffffffffffffffffffffffffffffffff1673ffffffffffffffffffffffffffffffffffffffff16815260200190815260200160002060000160149054906101000a900460ff166118cd576040517f08c379a00000000000000000000000000000000000000000000000000000000081526004018080602001828103825260188152602001807f4169726c696e65206973206e6f7420726567697374726564000000000000000081525060200191505060405180910390fd5b6001600260003273ffffffffffffffffffffffffffffffffffffffff1673ffffffffffffffffffffffffffffffffffffffff16815260200190815260200160002060000160156101000a81548160ff02191690831515021790555060033290806001815401808255809150509060018203906000526020600020016000909192909190916101000a81548173ffffffffffffffffffffffffffffffffffffffff021916908373ffffffffffffffffffffffffffffffffffffffff160217905550507f3c348ba34685212d5d04f432a9e569b642b180df0227a6b0c899050c4acb7af832604051808273ffffffffffffffffffffffffffffffffffffffff1673ffffffffffffffffffffffffffffffffffffffff16815260200191505060405180910390a150565b60008060149054906101000a900460ff16611a5a576040517f08c379a00000000000000000000000000000000000000000000000000000000081526004018080602001828103825260258152602001806125c46025913960400191505060405180910390fd5b60011515600160003373ffffffffffffffffffffffffffffffffffffffff1673ffffffffffffffffffffffffffffffffffffffff16815260200190815260200160002060009054906101000a900460ff16151514611b20576040517f08c379a00000000000000000000000000000000000000000000000000000000081526004018080602001828103825260188152602001807f43616c6c6572206973206e6f7420617574686f72697a6564000000000000000081525060200191505060405180910390fd5b32600260008273ffffffffffffffffffffffffffffffffffffffff1673ffffffffffffffffffffffffffffffffffffffff16815260200190815260200160002060000160149054906101000a900460ff16611be3576040517f08c379a00000000000000000000000000000000000000000000000000000000081526004018080602001828103825260188152602001807f4169726c696e65206973206e6f7420726567697374726564000000000000000081525060200191505060405180910390fd5b32600260008273ffffffffffffffffffffffffffffffffffffffff1673ffffffffffffffffffffffffffffffffffffffff16815260200190815260200160002060000160159054906101000a900460ff16611ca6576040517f08c379a00000000000000000000000000000000000000000000000000000000081526004018080602001828103825260158152602001807f4169726c696e65206973206e6f742066756e646564000000000000000000000081525060200191505060405180910390fd5b600073ffffffffffffffffffffffffffffffffffffffff168473ffffffffffffffffffffffffffffffffffffffff161415611d49576040517f08c379a00000000000000000000000000000000000000000000000000000000081526004018080602001828103825260178152602001807f496e76616c6964206169726c696e65206164647265737300000000000000000081525060200191505060405180910390fd5b600260008573ffffffffffffffffffffffffffffffffffffffff1673ffffffffffffffffffffffffffffffffffffffff16815260200190815260200160002060000160149054906101000a900460ff1615611e0c576040517f08c379a000000000000000000000000000000000000000000000000000000000815260040180806020018281038252601e8152602001807f4169726c696e6520697320616c726561647920726567697374657265642e000081525060200191505060405180910390fd5b60405180606001604052808573ffffffffffffffffffffffffffffffffffffffff16815260200160011515815260200160001515815250600260008673ffffffffffffffffffffffffffffffffffffffff1673ffffffffffffffffffffffffffffffffffffffff16815260200190815260200160002060008201518160000160006101000a81548173ffffffffffffffffffffffffffffffffffffffff021916908373ffffffffffffffffffffffffffffffffffffffff16021790555060208201518160000160146101000a81548160ff02191690831515021790555060408201518160000160156101000a81548160ff02191690831515021790555090505060048490806001815401808255809150509060018203906000526020600020016000909192909190916101000a81548173ffffffffffffffffffffffffffffffffffffffff021916908373ffffffffffffffffffffffffffffffffffffffff16021790555050600260008573ffffffffffffffffffffffffffffffffffffffff1673ffffffffffffffffffffffffffffffffffffffff16815260200190815260200160002060000160149054906101000a900460ff1692505050919050565b6060600480548060200260200160405190810160405280929190818152602001828054801561204f57602002820191906000526020600020905b8160009054906101000a900473ffffffffffffffffffffffffffffffffffffffff1673ffffffffffffffffffffffffffffffffffffffff1681526020019060010190808311612005575b5050505050905090565b6000600260008373ffffffffffffffffffffffffffffffffffffffff1673ffffffffffffffffffffffffffffffffffffffff16815260200190815260200160002060000160149054906101000a900460ff169050919050565b600060149054906101000a900460ff16612117576040517f08c379a00000000000000000000000000000000000000000000000000000000081526004018080602001828103825260258152602001806125c46025913960400191505060405180910390fd5b60011515600160003373ffffffffffffffffffffffffffffffffffffffff1673ffffffffffffffffffffffffffffffffffffffff16815260200190815260200160002060009054906101000a900460ff161515146121dd576040517f08c379a00000000000000000000000000000000000000000000000000000000081526004018080602001828103825260188152602001807f43616c6c6572206973206e6f7420617574686f72697a6564000000000000000081525060200191505060405180910390fd5b60006007600083815260200190815260200160002080549050101561224d576040517f08c379a000000000000000000000000000000000000000000000000000000000815260040180806020018281038252602b815260200180612567602b913960400191505060405180910390fd5b60008090505b600760008381526020019081526020016000208054905081101561239e57600060076000848152602001908152602001600020828154811061229157fe5b9060005260206000200160009054906101000a900473ffffffffffffffffffffffffffffffffffffffff1690506000600960003273ffffffffffffffffffffffffffffffffffffffff1673ffffffffffffffffffffffffffffffffffffffff168152602001908152602001600020600085815260200190815260200160002054905061238e61233d600f61232f600a8561250490919063ffffffff16565b61251890919063ffffffff16565b600560008573ffffffffffffffffffffffffffffffffffffffff1673ffffffffffffffffffffffffffffffffffffffff1681526020019081526020016000206001015461254c90919063ffffffff16565b5050508080600101915050612253565b507fcce46ac6ff47f9dba295ee7d5d154fe5498fcb89a1ae8ce8bfd60dda136414df60076000838152602001908152602001600020826040518080602001838152602001828103825284818154815260200191508054801561245557602002820191906000526020600020905b8160009054906101000a900473ffffffffffffffffffffffffffffffffffffffff1673ffffffffffffffffffffffffffffffffffffffff168152602001906001019080831161240b575b5050935050505060405180910390a150565b60008060149054906101000a900460ff16905090565b600084848484604051602001808573ffffffffffffffffffffffffffffffffffffffff1673ffffffffffffffffffffffffffffffffffffffff166c0100000000000000000000000002815260140184848082843780830192505050828152602001945050505050604051602081830303815290604052805190602001209050949350505050565b600081838161250f57fe5b04905092915050565b60008083141561252b5760009050612546565b81830290508183828161253a57fe5b041461254257fe5b8090505b92915050565b600081830190508281101561255d57fe5b8090509291505056fe54686520666c6967687420646f6573206e6f74206861766520696e737572616e6365207265636f7264656470617373656e6765722068617320616c726561647920616e20696e637572656e636520666f72207468697320666c69676874436f6e74726163742069732063757272656e746c79206e6f74206f7065726174696f6e616ca165627a7a72305820231e78823bd445351bebb178b52643dff6ead6519817f57e14430383aeab83d00029",
  "source": "pragma solidity ^0.5.0;\n\nimport \"../contracts/SafeMath.sol\";\n\ncontract FlightSuretyData {\n    using SafeMath for uint256;\n\n    /********************************************************************************************/\n    /*                                       DATA VARIABLES                                     */\n    /********************************************************************************************/\n\n    address private contractOwner;                                      // Account used to deploy contract\n    bool private operational = true;                                    // Blocks all state changes throughout the contract if false\n    mapping(address => bool) private authorizedContracts;               // Address of the allowed contracts to deal with the contract\n    mapping (address => Airline) private airlines;                      // info of all registered airlines\n    address[] private activeAirlines;                                   // All funded airlines addresses\n    address[] private registeredAirlines;                               // All registered airlines addresses\n    mapping (address => Passenger) private insuredPassengers;           // Passengers info\n    address[] private passengers;                                       // All passengres addresses\n    mapping (bytes32 => address[]) private boughtIncurence;\n    mapping (address =>bytes32[]) allFlights;\n    mapping (address => mapping(bytes32 => uint256)) insuredFlight;\n    \n    //Airline Struct\n    struct Airline {\n        address airlineAddress;\n        bool isRegistered;\n        bool isFunded;\n    }\n\n    //Passenger Struct\n    struct Passenger{\n        address passengerAddress;\n        uint256 credit;\n        bool isRegistered;\n    }\n\n    /********************************************************************************************/\n    /*                                       EVENT DEFINITIONS                                  */\n    /********************************************************************************************/\n\n    event AirlineRegistred(address newAirline);\n    event AirlineFunded(address _address);\n    event PassengerRegidtered(address _address);\n    event PassengerInsured(address _address, bytes32 flightKey);\n    event PassengerCreditUpdated(address[] _addresses, bytes32 flightKey);\n    event PassengerPayout(address _address, uint256 amount);\n    event x(bytes32[] _x);\n\n    /**\n    * @dev Constructor\n    *      The deploying account becomes contractOwner\n    */\n    constructor(address firstAirline) public \n    {\n        contractOwner = msg.sender;\n        registeredAirlines.push(firstAirline);\n        airlines[firstAirline] = Airline({isRegistered: true, isFunded: false, airlineAddress: firstAirline});\n    }\n\n    /********************************************************************************************/\n    /*                                       FUNCTION MODIFIERS                                 */\n    /********************************************************************************************/\n\n    // Modifiers help avoid duplication of code. They are typically used to validate something\n    // before a function is allowed to be executed.\n\n    /**\n    * @dev Modifier that requires the \"operational\" boolean variable to be \"true\"\n    *      This is used on all state changing functions to pause the contract in \n    *      the event there is an issue that needs to be fixed\n    */\n    modifier requireIsOperational() \n    {\n        require(operational, \"Contract is currently not operational\");\n        _;\n    }\n\n    /**\n    * @dev Modifier that requires the \"ContractOwner\" account to be the function caller\n    */\n    modifier requireContractOwner()\n    {\n        require(msg.sender == contractOwner, \"Caller is not contract owner\");\n        _;\n    }\n\n    /**\n    * @dev Modifier that requires the \"Caller\" account is authorized\n    */\n    modifier requireIsCallerAuthorized()\n    {\n        require(authorizedContracts[msg.sender] == true, \"Caller is not authorized\");\n        _;\n    } \n\n    /**\n    * @dev Modifier that requires the \"Airline\" is registred\n    */\n    modifier requireIsAirlineRegistred(address _airline)\n    {\n        require(airlines[_airline].isRegistered, \"Airline is not registred\");\n        _;\n    }\n\n    /**\n    * @dev Modifier that requires the \"Airline\" is funded\n    */\n    modifier requireIsAirlineFunded(address _airline)\n    {\n        require(airlines[_airline].isFunded, \"Airline is not funded\");\n        _;\n    }\n\n    /**\n    * @dev Modifier that requires the \"passenger\" has a flight insurance\n    */\n    modifier requirePassenger(address _passenger) {\n        require(insuredPassengers[_passenger].isRegistered, \"Invalid passenger address\");\n        _;\n    }\n\n    /********************************************************************************************/\n    /*                                       UTILITY FUNCTIONS                                  */\n    /********************************************************************************************/\n\n    /**\n    * @dev Get operating status of contract\n    *\n    * @return A bool that is the current operating status\n    */      \n    function isOperational() public view returns(bool) \n    {\n        return operational;\n    }\n\n    /**\n    * @dev Sets contract operations on/off\n    *\n    * When operational mode is disabled, all write transactions except for this one will fail\n    */    \n    function setOperatingStatus(bool mode) external requireContractOwner \n    {\n        operational = mode;\n    }\n\n    /**\n    * @dev authorize caller (contract address)\n    */   \n    function authorizeCaller(address contractAddress) external requireContractOwner\n    {\n        authorizedContracts[contractAddress] = true;\n    }\n\n    /**\n    * @dev unauthorize caller \n    */ \n    function deauthorizeCaller(address contractAddress) external requireContractOwner\n    {\n        delete authorizedContracts[contractAddress];\n    }\n\n    /**\n    * @dev Get authorize caller state\n    * @return A bool that is the current caller status\n    */ \n    function isCallerAuthorized(address contractAddress) public view requireContractOwner\n    returns (bool)\n    {\n        return authorizedContracts[contractAddress];\n    }\n\n    /**\n    * @dev check the registration of the airline\n    *\n    * @return A bool that is the state of airline registration\n    */      \n    function isRegistered(address airline) public view returns(bool) \n    {\n        return airlines[airline].isRegistered;\n    }\n\n    /**\n    * @dev check if airline is funded\n    *\n    * @return A bool that is the state of airline\n    */      \n    function isFunded(address airline) public view returns(bool) \n    {\n        return airlines[airline].isFunded;\n    }\n\n    /**\n    * @dev check pasenger registration\n    *\n    * @return  bool value\n    */      \n    function isPassenger(address _address) public view returns(bool) \n    {\n        return insuredPassengers[_address].isRegistered;\n    }\n\n    /********************************************************************************************/\n    /*                                     SMART CONTRACT FUNCTIONS                             */\n    /********************************************************************************************/\n\n\n   /**\n    * @dev Add an airline to the registration queue\n    *      Can only be called from FlightSuretyApp contract\n    *\n    */   \n    function registerAirline(address _newAirline) external \n    requireIsOperational \n    requireIsCallerAuthorized \n    requireIsAirlineRegistred(tx.origin)\n    requireIsAirlineFunded(tx.origin)\n    returns(bool)\n    {\n        require(_newAirline != address(0), 'Invalid airline address');\n        require(!airlines[_newAirline].isRegistered, \"Airline is already registered.\");\n        airlines[_newAirline] = Airline({isRegistered: true, isFunded: false, airlineAddress: _newAirline});\n        registeredAirlines.push(_newAirline);\n        return airlines[_newAirline].isRegistered;\n        //emit AirlineRegistred(_newAirline);\n    }\n\n    /**\n    * @dev Get registred airlines\n    * @return list of adresses \n    */ \n    function getRegisteredAirlines() external view returns(address[] memory) \n    {\n        return registeredAirlines;\n    }\n\n    /**\n    * @dev Get number of the registred airlines\n    * @return uint  \n    */ \n    function getNumberOfRegistredAirline() external view returns(uint256) \n    {\n        return registeredAirlines.length;\n    }\n  \n     /**\n    * @dev Initial funding for the insurance. Unless there are too many delayed flights\n    *      resulting in insurance payouts, the contract should be self-sustaining\n    *\n    */\n    function fundAirline() external\n        requireIsOperational\n        requireIsCallerAuthorized\n        requireIsAirlineRegistred(tx.origin)\n    {\n        airlines[tx.origin].isFunded = true;\n        activeAirlines.push(tx.origin);\n        emit AirlineFunded(tx.origin);\n    }\n\n     /**\n    * @dev Get funded airlines\n    * @return list of adresses \n    */ \n    function getFundedAirlines() external view returns(address[] memory) \n    {\n        return activeAirlines;\n    }\n\n\n    /**\n    * @dev register passenger\n    */\n    function registerPassenger(address _address) public   \n    {\n        insuredPassengers[_address] = Passenger({passengerAddress: _address , credit: 0, isRegistered: true});\n        passengers.push(_address);\n        emit PassengerRegidtered(_address);\n    }\n\n    /**\n    * @dev Get passenges addresses\n    * @return list of adresses \n    */ \n    function getPassengers() external view returns(address[] memory) \n    {\n        return passengers;\n    }\n\n    /**\n    * @dev Get the flight key\n    *\n    */ \n    function getFlightKey(address airline, string calldata flight, uint256 timestamp) pure external returns(bytes32) \n    {\n        return keccak256(abi.encodePacked(airline, flight, timestamp));\n    }\n\n   /**\n    * @dev Buy insurance for a flight\n    *\n    */   \n    function buy(bytes32 flightKey, uint256 amount) external payable requireIsOperational requireIsCallerAuthorized requirePassenger(tx.origin)\n    {\n        //emit x(allFlights[tx.origin]);\n        require(allFlights[tx.origin].length >= 0 , \"passenger has already an incurence for this flight\");\n        boughtIncurence[flightKey].push(tx.origin);\n        insuredFlight[tx.origin][flightKey] = amount;\n        emit PassengerInsured(tx.origin, flightKey);\n    }\n\n    /**\n     *  @dev Credits payouts to insurees\n    */\n    function creditInsurees(bytes32 flightKey) external payable requireIsOperational requireIsCallerAuthorized\n    {\n        require(boughtIncurence[flightKey].length >= 0 , \"The flight does not have insurance recorded\");\n        for(uint i = 0; i < boughtIncurence[flightKey].length; i++) \n        {\n            address _passengerAddress = boughtIncurence[flightKey][i];\n            uint256 insurenceAmount = insuredFlight[tx.origin][flightKey];\n            insuredPassengers[_passengerAddress].credit.add(insurenceAmount.div(10).mul(15));\n        }\n        emit PassengerCreditUpdated(boughtIncurence[flightKey], flightKey);\n    }\n\n    /**\n     *  @dev Transfers eligible payout funds to insuree\n     *\n    */\n    function pay() external payable requireIsOperational requireIsCallerAuthorized requirePassenger(tx.origin)\n    {\n        require(insuredPassengers[tx.origin].credit > 0, \"There is no payout\");\n        uint amount  = insuredPassengers[tx.origin].credit;\n        insuredPassengers[tx.origin].credit = 0;\n        (tx.origin).transfer(amount);\n        emit PassengerPayout(tx.origin, amount);\n    } \n\n    /**\n    * @dev Initial funding for the insurance. Unless there are too many delayed flights\n    *      resulting in insurance payouts, the contract should be self-sustaining\n    *\n    */\n    function fund() public payable\n    {\n    }\n\n    /**\n    * @dev Fallback function for funding smart contract.\n    *\n    */\n    function()  external  payable \n    {\n        fund();\n    }\n\n}",
  "sourcePath": "/home/wafa/Desktop/FlightSurety/contracts/FlightSuretyData.sol",
  "compiler": {
    "name": "solc",
    "version": "0.5.8+commit.23d335f2.Emscripten.clang"
  },
  "schemaVersion": "3.0.0-beta.2",
  "updatedAt": "2019-05-07T02:09:08.731Z",
  "devdoc": {
    "methods": {
      "authorizeCaller(address)": {
        "details": "authorize caller (contract address)"
      },
      "buy(bytes32,uint256)": {
        "details": "Buy insurance for a flight    "
      },
      "constructor": {
        "details": "Constructor     The deploying account becomes contractOwner"
      },
      "creditInsurees(bytes32)": {
        "details": "Credits payouts to insurees"
      },
      "deauthorizeCaller(address)": {
        "details": "unauthorize caller "
      },
      "fund()": {
        "details": "Initial funding for the insurance. Unless there are too many delayed flights     resulting in insurance payouts, the contract should be self-sustaining    "
      },
      "fundAirline()": {
        "details": "Initial funding for the insurance. Unless there are too many delayed flights     resulting in insurance payouts, the contract should be self-sustaining    "
      },
      "getFlightKey(address,string,uint256)": {
        "details": "Get the flight key    "
      },
      "getFundedAirlines()": {
        "details": "Get funded airlines",
        "return": "list of adresses "
      },
      "getNumberOfRegistredAirline()": {
        "details": "Get number of the registred airlines",
        "return": "uint  "
      },
      "getPassengers()": {
        "details": "Get passenges addresses",
        "return": "list of adresses "
      },
      "getRegisteredAirlines()": {
        "details": "Get registred airlines",
        "return": "list of adresses "
      },
      "isCallerAuthorized(address)": {
        "details": "Get authorize caller state",
        "return": "A bool that is the current caller status"
      },
      "isFunded(address)": {
        "details": "check if airline is funded",
        "return": "A bool that is the state of airline"
      },
      "isOperational()": {
        "details": "Get operating status of contract",
        "return": "A bool that is the current operating status"
      },
      "isPassenger(address)": {
        "details": "check pasenger registration",
        "return": "bool value"
      },
      "isRegistered(address)": {
        "details": "check the registration of the airline",
        "return": "A bool that is the state of airline registration"
      },
      "pay()": {
        "details": "Transfers eligible payout funds to insuree    "
      },
      "registerAirline(address)": {
        "details": "Add an airline to the registration queue     Can only be called from FlightSuretyApp contract    "
      },
      "registerPassenger(address)": {
        "details": "register passenger"
      },
      "setOperatingStatus(bool)": {
        "details": "Sets contract operations on/off    * When operational mode is disabled, all write transactions except for this one will fail"
      }
    }
  },
  "userdoc": {
    "methods": {}
  }
}