{
  "contractName": "FlightSuretyApp",
  "abi": [
    {
      "constant": true,
      "inputs": [],
      "name": "REGISTRATION_FEE",
      "outputs": [
        {
          "name": "",
          "type": "uint256"
        }
      ],
      "payable": false,
      "stateMutability": "view",
      "type": "function",
      "signature": "0x64b4f751"
    },
    {
      "constant": true,
      "inputs": [],
      "name": "insurenceFee",
      "outputs": [
        {
          "name": "",
          "type": "uint256"
        }
      ],
      "payable": false,
      "stateMutability": "view",
      "type": "function",
      "signature": "0x93f14678"
    },
    {
      "constant": true,
      "inputs": [],
      "name": "airlineFee",
      "outputs": [
        {
          "name": "",
          "type": "uint256"
        }
      ],
      "payable": false,
      "stateMutability": "view",
      "type": "function",
      "signature": "0xbd66f683"
    },
    {
      "constant": true,
      "inputs": [],
      "name": "consensusAirlinesNumber",
      "outputs": [
        {
          "name": "",
          "type": "uint256"
        }
      ],
      "payable": false,
      "stateMutability": "view",
      "type": "function",
      "signature": "0xbdc3ad6d"
    },
    {
      "inputs": [
        {
          "name": "_dataContractAddress",
          "type": "address"
        }
      ],
      "payable": false,
      "stateMutability": "nonpayable",
      "type": "constructor",
      "signature": "constructor"
    },
    {
      "anonymous": false,
      "inputs": [
        {
          "indexed": false,
          "name": "airline",
          "type": "address"
        }
      ],
      "name": "airlineRegistred",
      "type": "event",
      "signature": "0x6b142a568a9339b7263ad85ccdc807a26acc164c663666ec5f45be0a5eb64ae2"
    },
    {
      "anonymous": false,
      "inputs": [
        {
          "indexed": false,
          "name": "airline",
          "type": "address"
        }
      ],
      "name": "airlineFunded",
      "type": "event",
      "signature": "0x6a271d1fc1ff00cf80d9e67d144d2a4ea770a812df72ceed4f0083f76c568769"
    },
    {
      "anonymous": false,
      "inputs": [
        {
          "indexed": false,
          "name": "airline",
          "type": "address"
        },
        {
          "indexed": false,
          "name": "flightNumber",
          "type": "string"
        },
        {
          "indexed": false,
          "name": "timestamp",
          "type": "uint256"
        }
      ],
      "name": "insurancePurchased",
      "type": "event",
      "signature": "0x3c2a00c02ad10ab9e6c396ddcc9636ff32ff84ed0a36947d5acdcfcc69041daf"
    },
    {
      "anonymous": false,
      "inputs": [
        {
          "indexed": false,
          "name": "flightNumber",
          "type": "string"
        }
      ],
      "name": "flightRegistered",
      "type": "event",
      "signature": "0xdd3247f477b48d7334ef8ecaed513d54580ccd1b3dfedef7995130a0d07f6c3e"
    },
    {
      "anonymous": false,
      "inputs": [
        {
          "indexed": false,
          "name": "airline",
          "type": "address"
        }
      ],
      "name": "PassengerPayout",
      "type": "event",
      "signature": "0xedc92199f62e12b8345b22c63fbe2b3747e8e17b2d9cccf7138b8d3da043a4b3"
    },
    {
      "anonymous": false,
      "inputs": [
        {
          "indexed": false,
          "name": "airline",
          "type": "address"
        },
        {
          "indexed": false,
          "name": "flight",
          "type": "string"
        },
        {
          "indexed": false,
          "name": "timestamp",
          "type": "uint256"
        },
        {
          "indexed": false,
          "name": "status",
          "type": "uint8"
        }
      ],
      "name": "FlightStatusInfo",
      "type": "event",
      "signature": "0xe23f5229de535c091e3b7bec2665f5d698192d3b31393066e8987b7a05076b6c"
    },
    {
      "anonymous": false,
      "inputs": [
        {
          "indexed": false,
          "name": "airline",
          "type": "address"
        },
        {
          "indexed": false,
          "name": "flight",
          "type": "string"
        },
        {
          "indexed": false,
          "name": "timestamp",
          "type": "uint256"
        },
        {
          "indexed": false,
          "name": "status",
          "type": "uint8"
        }
      ],
      "name": "OracleReport",
      "type": "event",
      "signature": "0x43c853095c2752648493c88b4baac4d580d2594ffb00c6f1d4242d844514f783"
    },
    {
      "anonymous": false,
      "inputs": [
        {
          "indexed": false,
          "name": "index",
          "type": "uint8"
        },
        {
          "indexed": false,
          "name": "airline",
          "type": "address"
        },
        {
          "indexed": false,
          "name": "flight",
          "type": "string"
        },
        {
          "indexed": false,
          "name": "timestamp",
          "type": "uint256"
        }
      ],
      "name": "OracleRequest",
      "type": "event",
      "signature": "0x3ed01f2c3fc24c6b329d931e35b03e390d23497d22b3f90e15b600343e93df11"
    },
    {
      "constant": true,
      "inputs": [],
      "name": "isOperational",
      "outputs": [
        {
          "name": "",
          "type": "bool"
        }
      ],
      "payable": false,
      "stateMutability": "view",
      "type": "function",
      "signature": "0xcd905dff"
    },
    {
      "constant": false,
      "inputs": [
        {
          "name": "mode",
          "type": "bool"
        }
      ],
      "name": "setOperatingStatus",
      "outputs": [],
      "payable": false,
      "stateMutability": "nonpayable",
      "type": "function",
      "signature": "0x110466ed"
    },
    {
      "constant": true,
      "inputs": [],
      "name": "isDataContractOperational",
      "outputs": [
        {
          "name": "",
          "type": "bool"
        }
      ],
      "payable": false,
      "stateMutability": "view",
      "type": "function",
      "signature": "0xee9c1a54"
    },
    {
      "constant": true,
      "inputs": [
        {
          "name": "flight",
          "type": "bytes32"
        }
      ],
      "name": "isFlight",
      "outputs": [
        {
          "name": "",
          "type": "bool"
        }
      ],
      "payable": false,
      "stateMutability": "view",
      "type": "function",
      "signature": "0xdbeb9d82"
    },
    {
      "constant": false,
      "inputs": [
        {
          "name": "_newAirline",
          "type": "address"
        }
      ],
      "name": "registerAirline",
      "outputs": [
        {
          "name": "success",
          "type": "bool"
        },
        {
          "name": "votes",
          "type": "uint256"
        }
      ],
      "payable": false,
      "stateMutability": "nonpayable",
      "type": "function",
      "signature": "0xbdfd9877"
    },
    {
      "constant": true,
      "inputs": [],
      "name": "getRegisteredAirlines",
      "outputs": [
        {
          "name": "",
          "type": "address[]"
        }
      ],
      "payable": false,
      "stateMutability": "view",
      "type": "function",
      "signature": "0xc23bcf09"
    },
    {
      "constant": false,
      "inputs": [],
      "name": "fundAirline",
      "outputs": [],
      "payable": true,
      "stateMutability": "payable",
      "type": "function",
      "signature": "0x9ed18927"
    },
    {
      "constant": true,
      "inputs": [],
      "name": "getFundedAirlines",
      "outputs": [
        {
          "name": "",
          "type": "address[]"
        }
      ],
      "payable": false,
      "stateMutability": "view",
      "type": "function",
      "signature": "0x77ed850a"
    },
    {
      "constant": false,
      "inputs": [
        {
          "name": "_address",
          "type": "address"
        }
      ],
      "name": "registerPassenger",
      "outputs": [],
      "payable": false,
      "stateMutability": "nonpayable",
      "type": "function",
      "signature": "0x94c15694"
    },
    {
      "constant": false,
      "inputs": [
        {
          "name": "_airline",
          "type": "address"
        },
        {
          "name": "_flightNumber",
          "type": "string"
        },
        {
          "name": "_timestamp",
          "type": "uint256"
        }
      ],
      "name": "buyInsurence",
      "outputs": [],
      "payable": true,
      "stateMutability": "payable",
      "type": "function",
      "signature": "0xdd35037a"
    },
    {
      "constant": false,
      "inputs": [
        {
          "name": "_airline",
          "type": "address"
        },
        {
          "name": "_flightNumber",
          "type": "string"
        },
        {
          "name": "_timestamp",
          "type": "uint256"
        }
      ],
      "name": "registerFlight",
      "outputs": [],
      "payable": false,
      "stateMutability": "nonpayable",
      "type": "function",
      "signature": "0x3cc0be9c"
    },
    {
      "constant": false,
      "inputs": [],
      "name": "payout",
      "outputs": [],
      "payable": false,
      "stateMutability": "nonpayable",
      "type": "function",
      "signature": "0x63bd1d4a"
    },
    {
      "constant": false,
      "inputs": [
        {
          "name": "airline",
          "type": "address"
        },
        {
          "name": "flight",
          "type": "string"
        },
        {
          "name": "timestamp",
          "type": "uint256"
        }
      ],
      "name": "fetchFlightStatus",
      "outputs": [],
      "payable": false,
      "stateMutability": "nonpayable",
      "type": "function",
      "signature": "0xf83f11c0"
    },
    {
      "constant": false,
      "inputs": [],
      "name": "registerOracle",
      "outputs": [],
      "payable": true,
      "stateMutability": "payable",
      "type": "function",
      "signature": "0x339d2590"
    },
    {
      "constant": true,
      "inputs": [],
      "name": "getMyIndexes",
      "outputs": [
        {
          "name": "",
          "type": "uint8[3]"
        }
      ],
      "payable": false,
      "stateMutability": "view",
      "type": "function",
      "signature": "0x5f1cc0e6"
    },
    {
      "constant": false,
      "inputs": [
        {
          "name": "index",
          "type": "uint8"
        },
        {
          "name": "airline",
          "type": "address"
        },
        {
          "name": "flight",
          "type": "string"
        },
        {
          "name": "timestamp",
          "type": "uint256"
        },
        {
          "name": "statusCode",
          "type": "uint8"
        }
      ],
      "name": "submitOracleResponse",
      "outputs": [],
      "payable": false,
      "stateMutability": "nonpayable",
      "type": "function",
      "signature": "0xc10f2700"
    }
  ],
  "bytecode": "0x60806040526001600060146101000a81548160ff0219169083151502179055506000600460146101000a81548160ff021916908360ff16021790555034801561004757600080fd5b5060405160208061382b8339810180604052602081101561006757600080fd5b810190808051906020019092919050505033600160006101000a81548173ffffffffffffffffffffffffffffffffffffffff021916908373ffffffffffffffffffffffffffffffffffffffff16021790555080600460006101000a81548173ffffffffffffffffffffffffffffffffffffffff021916908373ffffffffffffffffffffffffffffffffffffffff160217905550600460009054906101000a900473ffffffffffffffffffffffffffffffffffffffff166000806101000a81548173ffffffffffffffffffffffffffffffffffffffff021916908373ffffffffffffffffffffffffffffffffffffffff160217905550506136bf8061016c6000396000f3fe60806040526004361061013c576000357c010000000000000000000000000000000000000000000000000000000090048063bd66f683116100bd578063cd905dff11610081578063cd905dff146105bb578063dbeb9d82146105ea578063dd35037a1461063d578063ee9c1a54146106e0578063f83f11c01461070f5761013c565b8063bd66f683146103bf578063bdc3ad6d146103ea578063bdfd987714610415578063c10f270014610485578063c23bcf091461054f5761013c565b806364b4f7511161010457806364b4f751146102a257806377ed850a146102cd57806393f146781461033957806394c15694146103645780639ed18927146103b55761013c565b8063110466ed14610141578063339d25901461017e5780633cc0be9c146101885780635f1cc0e61461023857806363bd1d4a1461028b575b600080fd5b34801561014d57600080fd5b5061017c6004803603602081101561016457600080fd5b810190808035151590602001909291905050506107bf565b005b61018661089f565b005b34801561019457600080fd5b50610236600480360360608110156101ab57600080fd5b81019080803573ffffffffffffffffffffffffffffffffffffffff169060200190929190803590602001906401000000008111156101e857600080fd5b8201836020820111156101fa57600080fd5b8035906020019184600183028401116401000000008311171561021c57600080fd5b909192939192939080359060200190929190505050610a22565b005b34801561024457600080fd5b5061024d610e02565b6040518082600360200280838360005b8381101561027857808201518184015260208101905061025d565b5050505090500191505060405180910390f35b34801561029757600080fd5b506102a0610fd2565b005b3480156102ae57600080fd5b506102b7611131565b6040518082815260200191505060405180910390f35b3480156102d957600080fd5b506102e261113d565b6040518080602001828103825283818151815260200191508051906020019060200280838360005b8381101561032557808201518184015260208101905061030a565b505050509050019250505060405180910390f35b34801561034557600080fd5b5061034e611258565b6040518082815260200191505060405180910390f35b34801561037057600080fd5b506103b36004803603602081101561038757600080fd5b81019080803573ffffffffffffffffffffffffffffffffffffffff169060200190929190505050611264565b005b6103bd61133b565b005b3480156103cb57600080fd5b506103d46118bf565b6040518082815260200191505060405180910390f35b3480156103f657600080fd5b506103ff6118cb565b6040518082815260200191505060405180910390f35b34801561042157600080fd5b506104646004803603602081101561043857600080fd5b81019080803573ffffffffffffffffffffffffffffffffffffffff1690602001909291905050506118d0565b60405180831515151581526020018281526020019250505060405180910390f35b34801561049157600080fd5b5061054d600480360360a08110156104a857600080fd5b81019080803560ff169060200190929190803573ffffffffffffffffffffffffffffffffffffffff169060200190929190803590602001906401000000008111156104f257600080fd5b82018360208201111561050457600080fd5b8035906020019184600183028401116401000000008311171561052657600080fd5b909192939192939080359060200190929190803560ff169060200190929190505050611fb1565b005b34801561055b57600080fd5b50610564612514565b6040518080602001828103825283818151815260200191508051906020019060200280838360005b838110156105a757808201518184015260208101905061058c565b505050509050019250505060405180910390f35b3480156105c757600080fd5b506105d061262f565b604051808215151515815260200191505060405180910390f35b3480156105f657600080fd5b506106236004803603602081101561060d57600080fd5b8101908080359060200190929190505050612645565b604051808215151515815260200191505060405180910390f35b6106de6004803603606081101561065357600080fd5b81019080803573ffffffffffffffffffffffffffffffffffffffff1690602001909291908035906020019064010000000081111561069057600080fd5b8201836020820111156106a257600080fd5b803590602001918460018302840111640100000000831117156106c457600080fd5b909192939192939080359060200190929190505050612672565b005b3480156106ec57600080fd5b506106f5612bd5565b604051808215151515815260200191505060405180910390f35b34801561071b57600080fd5b506107bd6004803603606081101561073257600080fd5b81019080803573ffffffffffffffffffffffffffffffffffffffff1690602001909291908035906020019064010000000081111561076f57600080fd5b82018360208201111561078157600080fd5b803590602001918460018302840111640100000000831117156107a357600080fd5b909192939192939080359060200190929190505050612c9a565b005b600160009054906101000a900473ffffffffffffffffffffffffffffffffffffffff1673ffffffffffffffffffffffffffffffffffffffff163373ffffffffffffffffffffffffffffffffffffffff1614610882576040517f08c379a000000000000000000000000000000000000000000000000000000000815260040180806020018281038252601c8152602001807f43616c6c6572206973206e6f7420636f6e7472616374206f776e65720000000081525060200191505060405180910390fd5b80600060146101000a81548160ff02191690831515021790555050565b6108a761262f565b6108fc576040517f08c379a000000000000000000000000000000000000000000000000000000000815260040180806020018281038252602581526020018061364c6025913960400191505060405180910390fd5b670de0b6b3a764000034101561097a576040517f08c379a000000000000000000000000000000000000000000000000000000000815260040180806020018281038252601c8152602001807f526567697374726174696f6e206665652069732072657175697265640000000081525060200191505060405180910390fd5b6109826133be565b61098b33612f13565b9050604051806040016040528060011515815260200182815250600560003373ffffffffffffffffffffffffffffffffffffffff1673ffffffffffffffffffffffffffffffffffffffff16815260200190815260200160002060008201518160000160006101000a81548160ff021916908315150217905550602082015181600101906003610a1b9291906133e0565b5090505050565b610a2a61262f565b610a7f576040517f08c379a000000000000000000000000000000000000000000000000000000000815260040180806020018281038252602581526020018061364c6025913960400191505060405180910390fd5b60008060009054906101000a900473ffffffffffffffffffffffffffffffffffffffff1673ffffffffffffffffffffffffffffffffffffffff1663dfc0dff0868686866040518563ffffffff167c0100000000000000000000000000000000000000000000000000000000028152600401808573ffffffffffffffffffffffffffffffffffffffff1673ffffffffffffffffffffffffffffffffffffffff168152602001806020018381526020018281038252858582818152602001925080828437600081840152601f19601f8201169050808301925050509550505050505060206040518083038186803b158015610b7757600080fd5b505afa158015610b8b573d6000803e3d6000fd5b505050506040513d6020811015610ba157600080fd5b810190808051906020019092919050505090506002600082815260200190815260200160002060000160009054906101000a900460ff1615610c4b576040517f08c379a000000000000000000000000000000000000000000000000000000000815260040180806020018281038252601c8152602001807f466c6967687420697320616c726561647920726567697374657265640000000081525060200191505060405180910390fd5b6040518060a00160405280600115158152602001600060ff1681526020018381526020018673ffffffffffffffffffffffffffffffffffffffff16815260200185858080601f016020809104026020016040519081016040528093929190818152602001838380828437600081840152601f19601f820116905080830192505050505050508152506002600083815260200190815260200160002060008201518160000160006101000a81548160ff02191690831515021790555060208201518160000160016101000a81548160ff021916908360ff1602179055506040820151816001015560608201518160020160006101000a81548173ffffffffffffffffffffffffffffffffffffffff021916908373ffffffffffffffffffffffffffffffffffffffff1602179055506080820151816003019080519060200190610d9492919061347a565b509050507fdd3247f477b48d7334ef8ecaed513d54580ccd1b3dfedef7995130a0d07f6c3e848460405180806020018281038252848482818152602001925080828437600081840152601f19601f820116905080830192505050935050505060405180910390a15050505050565b610e0a6133be565b610e1261262f565b610e67576040517f08c379a000000000000000000000000000000000000000000000000000000000815260040180806020018281038252602581526020018061364c6025913960400191505060405180910390fd5b600560003373ffffffffffffffffffffffffffffffffffffffff1673ffffffffffffffffffffffffffffffffffffffff16815260200190815260200160002060000160009054906101000a900460ff16610f29576040517f08c379a000000000000000000000000000000000000000000000000000000000815260040180806020018281038252601b8152602001807f4e6f74207265676973746572656420617320616e206f7261636c65000000000081525060200191505060405180910390fd5b600560003373ffffffffffffffffffffffffffffffffffffffff1673ffffffffffffffffffffffffffffffffffffffff168152602001908152602001600020600101600380602002604051908101604052809291908260038015610fc8576020028201916000905b82829054906101000a900460ff1660ff1681526020019060010190602082600001049283019260010382029150808411610f915790505b5050505050905090565b610fda61262f565b61102f576040517f08c379a000000000000000000000000000000000000000000000000000000000815260040180806020018281038252602581526020018061364c6025913960400191505060405180910390fd5b7fedc92199f62e12b8345b22c63fbe2b3747e8e17b2d9cccf7138b8d3da043a4b333604051808273ffffffffffffffffffffffffffffffffffffffff1673ffffffffffffffffffffffffffffffffffffffff16815260200191505060405180910390a16000809054906101000a900473ffffffffffffffffffffffffffffffffffffffff1673ffffffffffffffffffffffffffffffffffffffff16631b9265b86040518163ffffffff167c0100000000000000000000000000000000000000000000000000000000028152600401600060405180830381600087803b15801561111757600080fd5b505af115801561112b573d6000803e3d6000fd5b50505050565b670de0b6b3a764000081565b60606000809054906101000a900473ffffffffffffffffffffffffffffffffffffffff1673ffffffffffffffffffffffffffffffffffffffff166377ed850a6040518163ffffffff167c010000000000000000000000000000000000000000000000000000000002815260040160006040518083038186803b1580156111c257600080fd5b505afa1580156111d6573d6000803e3d6000fd5b505050506040513d6000823e3d601f19601f82011682018060405250602081101561120057600080fd5b81019080805164010000000081111561121857600080fd5b8281019050602081018481111561122e57600080fd5b815185602082028301116401000000008211171561124b57600080fd5b5050929190505050905090565b670de0b6b3a764000081565b6000809054906101000a900473ffffffffffffffffffffffffffffffffffffffff1673ffffffffffffffffffffffffffffffffffffffff166394c15694826040518263ffffffff167c0100000000000000000000000000000000000000000000000000000000028152600401808273ffffffffffffffffffffffffffffffffffffffff1673ffffffffffffffffffffffffffffffffffffffff168152602001915050600060405180830381600087803b15801561132057600080fd5b505af1158015611334573d6000803e3d6000fd5b5050505050565b61134361262f565b611398576040517f08c379a000000000000000000000000000000000000000000000000000000000815260040180806020018281038252602581526020018061364c6025913960400191505060405180910390fd5b678ac7230489e80000341015611416576040517f08c379a00000000000000000000000000000000000000000000000000000000081526004018080602001828103825260128152602001807f496e76616c69642066756e642076616c7565000000000000000000000000000081525060200191505060405180910390fd5b6000809054906101000a900473ffffffffffffffffffffffffffffffffffffffff1673ffffffffffffffffffffffffffffffffffffffff1663c3c5a547336040518263ffffffff167c0100000000000000000000000000000000000000000000000000000000028152600401808273ffffffffffffffffffffffffffffffffffffffff1673ffffffffffffffffffffffffffffffffffffffff16815260200191505060206040518083038186803b1580156114d057600080fd5b505afa1580156114e4573d6000803e3d6000fd5b505050506040513d60208110156114fa57600080fd5b810190808051906020019092919050505061157d576040517f08c379a00000000000000000000000000000000000000000000000000000000081526004018080602001828103825260188152602001807f4169726c696e65206973206e6f7420726567697374726564000000000000000081525060200191505060405180910390fd5b6000809054906101000a900473ffffffffffffffffffffffffffffffffffffffff1673ffffffffffffffffffffffffffffffffffffffff16635689b249336040518263ffffffff167c0100000000000000000000000000000000000000000000000000000000028152600401808273ffffffffffffffffffffffffffffffffffffffff1673ffffffffffffffffffffffffffffffffffffffff16815260200191505060206040518083038186803b15801561163757600080fd5b505afa15801561164b573d6000803e3d6000fd5b505050506040513d602081101561166157600080fd5b8101908080519060200190929190505050156116e5576040517f08c379a00000000000000000000000000000000000000000000000000000000081526004018080602001828103825260198152602001807f4169726c696e6520697320616c72656164792066756e6465640000000000000081525060200191505060405180910390fd5b600460009054906101000a900473ffffffffffffffffffffffffffffffffffffffff1673ffffffffffffffffffffffffffffffffffffffff166108fc678ac7230489e800009081150290604051600060405180830381858888f19350505050158015611755573d6000803e3d6000fd5b506000809054906101000a900473ffffffffffffffffffffffffffffffffffffffff1673ffffffffffffffffffffffffffffffffffffffff16639ed189276040518163ffffffff167c0100000000000000000000000000000000000000000000000000000000028152600401600060405180830381600087803b1580156117db57600080fd5b505af11580156117ef573d6000803e3d6000fd5b505050507f6a271d1fc1ff00cf80d9e67d144d2a4ea770a812df72ceed4f0083f76c56876933604051808273ffffffffffffffffffffffffffffffffffffffff1673ffffffffffffffffffffffffffffffffffffffff16815260200191505060405180910390a16000611873678ac7230489e800003461309f90919063ffffffff16565b90503373ffffffffffffffffffffffffffffffffffffffff166108fc829081150290604051600060405180830381858888f193505050501580156118bb573d6000803e3d6000fd5b5050565b678ac7230489e8000081565b600481565b6000806118db61262f565b611930576040517f08c379a000000000000000000000000000000000000000000000000000000000815260040180806020018281038252602581526020018061364c6025913960400191505060405180910390fd5b60008060009054906101000a900473ffffffffffffffffffffffffffffffffffffffff1673ffffffffffffffffffffffffffffffffffffffff1663679d46e26040518163ffffffff167c010000000000000000000000000000000000000000000000000000000002815260040160206040518083038186803b1580156119b557600080fd5b505afa1580156119c9573d6000803e3d6000fd5b505050506040513d60208110156119df57600080fd5b8101908080519060200190929190505050905060008090506000925060048211611e3e576000809054906101000a900473ffffffffffffffffffffffffffffffffffffffff1673ffffffffffffffffffffffffffffffffffffffff1663c3c5a547336040518263ffffffff167c0100000000000000000000000000000000000000000000000000000000028152600401808273ffffffffffffffffffffffffffffffffffffffff1673ffffffffffffffffffffffffffffffffffffffff16815260200191505060206040518083038186803b158015611abd57600080fd5b505afa158015611ad1573d6000803e3d6000fd5b505050506040513d6020811015611ae757600080fd5b8101908080519060200190929190505050611b6a576040517f08c379a00000000000000000000000000000000000000000000000000000000081526004018080602001828103825260188152602001807f4169726c696e65206973206e6f7420726567697374726564000000000000000081525060200191505060405180910390fd5b6000809054906101000a900473ffffffffffffffffffffffffffffffffffffffff1673ffffffffffffffffffffffffffffffffffffffff16635689b249336040518263ffffffff167c0100000000000000000000000000000000000000000000000000000000028152600401808273ffffffffffffffffffffffffffffffffffffffff1673ffffffffffffffffffffffffffffffffffffffff16815260200191505060206040518083038186803b158015611c2457600080fd5b505afa158015611c38573d6000803e3d6000fd5b505050506040513d6020811015611c4e57600080fd5b8101908080519060200190929190505050611cd1576040517f08c379a00000000000000000000000000000000000000000000000000000000081526004018080602001828103825260158152602001807f4169726c696e65206973206e6f742066756e646564000000000000000000000081525060200191505060405180910390fd5b600380549050925060008090505b83811015611d75573373ffffffffffffffffffffffffffffffffffffffff1660038281548110611d0b57fe5b9060005260206000200160009054906101000a900473ffffffffffffffffffffffffffffffffffffffff1673ffffffffffffffffffffffffffffffffffffffff161415611d68576001915060009450848494509450505050611fac565b8080600101915050611cdf565b5060033390806001815401808255809150509060018203906000526020600020016000909192909190916101000a81548173ffffffffffffffffffffffffffffffffffffffff021916908373ffffffffffffffffffffffffffffffffffffffff16021790555050600380549050925060028281611dee57fe5b048310611e3d576000604051908082528060200260200182016040528015611e255781602001602082028038833980820191505090505b5060039080519060200190611e3b9291906134fa565b505b5b80611f40576000809054906101000a900473ffffffffffffffffffffffffffffffffffffffff1673ffffffffffffffffffffffffffffffffffffffff1663bdfd9877866040518263ffffffff167c0100000000000000000000000000000000000000000000000000000000028152600401808273ffffffffffffffffffffffffffffffffffffffff1673ffffffffffffffffffffffffffffffffffffffff168152602001915050602060405180830381600087803b158015611eff57600080fd5b505af1158015611f13573d6000803e3d6000fd5b505050506040513d6020811015611f2957600080fd5b810190808051906020019092919050505050600193505b7f6b142a568a9339b7263ad85ccdc807a26acc164c663666ec5f45be0a5eb64ae285604051808273ffffffffffffffffffffffffffffffffffffffff1673ffffffffffffffffffffffffffffffffffffffff16815260200191505060405180910390a183839350935050505b915091565b611fb961262f565b61200e576040517f08c379a000000000000000000000000000000000000000000000000000000000815260040180806020018281038252602581526020018061364c6025913960400191505060405180910390fd5b8560ff16600560003373ffffffffffffffffffffffffffffffffffffffff1673ffffffffffffffffffffffffffffffffffffffff16815260200190815260200160002060010160006003811061206057fe5b602091828204019190069054906101000a900460ff1660ff1614806120ed57508560ff16600560003373ffffffffffffffffffffffffffffffffffffffff1673ffffffffffffffffffffffffffffffffffffffff1681526020019081526020016000206001016001600381106120d257fe5b602091828204019190069054906101000a900460ff1660ff16145b8061216057508560ff16600560003373ffffffffffffffffffffffffffffffffffffffff1673ffffffffffffffffffffffffffffffffffffffff16815260200190815260200160002060010160026003811061214557fe5b602091828204019190069054906101000a900460ff1660ff16145b6121b5576040517f08c379a00000000000000000000000000000000000000000000000000000000081526004018080602001828103825260238152602001806136716023913960400191505060405180910390fd5b60008686868686604051602001808660ff1660ff167f01000000000000000000000000000000000000000000000000000000000000000281526001018573ffffffffffffffffffffffffffffffffffffffff1673ffffffffffffffffffffffffffffffffffffffff166c0100000000000000000000000002815260140184848082843780830192505050828152602001955050505050506040516020818303038152906040528051906020012090506006600082815260200190815260200160002060000160149054906101000a900460ff166122dd576040517f08c379a000000000000000000000000000000000000000000000000000000000815260040180806020018281038252602f81526020018061361d602f913960400191505060405180910390fd5b6006600082815260200190815260200160002060010160008360ff1660ff1681526020019081526020016000203390806001815401808255809150509060018203906000526020600020016000909192909190916101000a81548173ffffffffffffffffffffffffffffffffffffffff021916908373ffffffffffffffffffffffffffffffffffffffff160217905550507f43c853095c2752648493c88b4baac4d580d2594ffb00c6f1d4242d844514f7838686868686604051808673ffffffffffffffffffffffffffffffffffffffff1673ffffffffffffffffffffffffffffffffffffffff168152602001806020018481526020018360ff1660ff1681526020018281038252868682818152602001925080828437600081840152601f19601f820116905080830192505050965050505050505060405180910390a160036006600083815260200190815260200160002060010160008460ff1660ff168152602001908152602001600020805490501061250b5761245d81836130b6565b7fe23f5229de535c091e3b7bec2665f5d698192d3b31393066e8987b7a05076b6c8686868686604051808673ffffffffffffffffffffffffffffffffffffffff1673ffffffffffffffffffffffffffffffffffffffff168152602001806020018481526020018360ff1660ff1681526020018281038252868682818152602001925080828437600081840152601f19601f820116905080830192505050965050505050505060405180910390a15b50505050505050565b60606000809054906101000a900473ffffffffffffffffffffffffffffffffffffffff1673ffffffffffffffffffffffffffffffffffffffff1663c23bcf096040518163ffffffff167c010000000000000000000000000000000000000000000000000000000002815260040160006040518083038186803b15801561259957600080fd5b505afa1580156125ad573d6000803e3d6000fd5b505050506040513d6000823e3d601f19601f8201168201806040525060208110156125d757600080fd5b8101908080516401000000008111156125ef57600080fd5b8281019050602081018481111561260557600080fd5b815185602082028301116401000000008211171561262257600080fd5b5050929190505050905090565b60008060149054906101000a900460ff16905090565b60006002600083815260200190815260200160002060000160009054906101000a900460ff169050919050565b61267a61262f565b6126cf576040517f08c379a000000000000000000000000000000000000000000000000000000000815260040180806020018281038252602581526020018061364c6025913960400191505060405180910390fd5b6000809054906101000a900473ffffffffffffffffffffffffffffffffffffffff1673ffffffffffffffffffffffffffffffffffffffff16631dd13a1d336040518263ffffffff167c0100000000000000000000000000000000000000000000000000000000028152600401808273ffffffffffffffffffffffffffffffffffffffff1673ffffffffffffffffffffffffffffffffffffffff16815260200191505060206040518083038186803b15801561278957600080fd5b505afa15801561279d573d6000803e3d6000fd5b505050506040513d60208110156127b357600080fd5b8101908080519060200190929190505050612836576040517f08c379a00000000000000000000000000000000000000000000000000000000081526004018080602001828103825260198152602001807f496e76616c69642070617373656e67657220616464726573730000000000000081525060200191505060405180910390fd5b60008060009054906101000a900473ffffffffffffffffffffffffffffffffffffffff1673ffffffffffffffffffffffffffffffffffffffff1663dfc0dff0868686866040518563ffffffff167c0100000000000000000000000000000000000000000000000000000000028152600401808573ffffffffffffffffffffffffffffffffffffffff1673ffffffffffffffffffffffffffffffffffffffff168152602001806020018381526020018281038252858582818152602001925080828437600081840152601f19601f8201169050808301925050509550505050505060206040518083038186803b15801561292e57600080fd5b505afa158015612942573d6000803e3d6000fd5b505050506040513d602081101561295857600080fd5b810190808051906020019092919050505090506002600082815260200190815260200160002060000160009054906101000a900460ff16612a01576040517f08c379a00000000000000000000000000000000000000000000000000000000081526004018080602001828103825260188152602001807f466c69676874206973206e6f742072656769737465726564000000000000000081525060200191505060405180910390fd5b670de0b6b3a7640000341115612a7f576040517f08c379a00000000000000000000000000000000000000000000000000000000081526004018080602001828103825260158152602001807f496e76616c656420696e637572656e636520666565000000000000000000000081525060200191505060405180910390fd5b6000809054906101000a900473ffffffffffffffffffffffffffffffffffffffff1673ffffffffffffffffffffffffffffffffffffffff16630ddeb63282346040518363ffffffff167c01000000000000000000000000000000000000000000000000000000000281526004018083815260200182815260200192505050600060405180830381600087803b158015612b1757600080fd5b505af1158015612b2b573d6000803e3d6000fd5b505050507f3c2a00c02ad10ab9e6c396ddcc9636ff32ff84ed0a36947d5acdcfcc69041daf85858585604051808573ffffffffffffffffffffffffffffffffffffffff1673ffffffffffffffffffffffffffffffffffffffff168152602001806020018381526020018281038252858582818152602001925080828437600081840152601f19601f8201169050808301925050509550505050505060405180910390a15050505050565b60008060009054906101000a900473ffffffffffffffffffffffffffffffffffffffff1673ffffffffffffffffffffffffffffffffffffffff1663cd905dff6040518163ffffffff167c010000000000000000000000000000000000000000000000000000000002815260040160206040518083038186803b158015612c5a57600080fd5b505afa158015612c6e573d6000803e3d6000fd5b505050506040513d6020811015612c8457600080fd5b8101908080519060200190929190505050905090565b612ca261262f565b612cf7576040517f08c379a000000000000000000000000000000000000000000000000000000000815260040180806020018281038252602581526020018061364c6025913960400191505060405180910390fd5b6000612d02336132c1565b905060008186868686604051602001808660ff1660ff167f01000000000000000000000000000000000000000000000000000000000000000281526001018573ffffffffffffffffffffffffffffffffffffffff1673ffffffffffffffffffffffffffffffffffffffff166c01000000000000000000000000028152601401848480828437808301925050508281526020019550505050505060405160208183030381529060405280519060200120905060405180604001604052803373ffffffffffffffffffffffffffffffffffffffff168152602001600115158152506006600083815260200190815260200160002060008201518160000160006101000a81548173ffffffffffffffffffffffffffffffffffffffff021916908373ffffffffffffffffffffffffffffffffffffffff16021790555060208201518160000160146101000a81548160ff0219169083151502179055509050507f3ed01f2c3fc24c6b329d931e35b03e390d23497d22b3f90e15b600343e93df118287878787604051808660ff1660ff1681526020018573ffffffffffffffffffffffffffffffffffffffff1673ffffffffffffffffffffffffffffffffffffffff168152602001806020018381526020018281038252858582818152602001925080828437600081840152601f19601f820116905080830192505050965050505050505060405180910390a1505050505050565b612f1b6133be565b612f236133be565b612f2c836132c1565b81600060038110612f3957fe5b602002019060ff16908160ff168152505080600060038110612f5757fe5b602002015181600160038110612f6957fe5b602002019060ff16908160ff16815250505b80600060038110612f8857fe5b602002015160ff1681600160038110612f9d57fe5b602002015160ff161415612fd757612fb4836132c1565b81600160038110612fc157fe5b602002019060ff16908160ff1681525050612f7b565b80600160038110612fe457fe5b602002015181600260038110612ff657fe5b602002019060ff16908160ff16815250505b8060006003811061301557fe5b602002015160ff168160026003811061302a57fe5b602002015160ff16148061306557508060016003811061304657fe5b602002015160ff168160026003811061305b57fe5b602002015160ff16145b1561309657613073836132c1565b8160026003811061308057fe5b602002019060ff16908160ff1681525050613008565b80915050919050565b6000828211156130ab57fe5b818303905092915050565b6130be61262f565b613113576040517f08c379a000000000000000000000000000000000000000000000000000000000815260040180806020018281038252602581526020018061364c6025913960400191505060405180910390fd5b6006600083815260200190815260200160002060000160149054906101000a900460ff166131a9576040517f08c379a000000000000000000000000000000000000000000000000000000000815260040180806020018281038252601f8152602001807f466c6967687420737461747573207265717565737420697320636c6f7365640081525060200191505060405180910390fd5b60006006600084815260200190815260200160002060000160146101000a81548160ff021916908315150217905550806002600084815260200190815260200160002060000160016101000a81548160ff021916908360ff160217905550601460ff168160ff1614156132bd576000809054906101000a900473ffffffffffffffffffffffffffffffffffffffff1673ffffffffffffffffffffffffffffffffffffffff1663cc2f6eba836040518263ffffffff167c01000000000000000000000000000000000000000000000000000000000281526004018082815260200191505060006040518083038186803b1580156132a457600080fd5b505afa1580156132b8573d6000803e3d6000fd5b505050505b5050565b600080600a905060008160ff166004601481819054906101000a900460ff168092919060010191906101000a81548160ff021916908360ff16021790555060ff1643034085604051602001808381526020018273ffffffffffffffffffffffffffffffffffffffff1673ffffffffffffffffffffffffffffffffffffffff166c010000000000000000000000000281526014019250505060405160208183030381529060405280519060200120600190048161337957fe5b06905060fa600460149054906101000a900460ff1660ff1611156133b4576000600460146101000a81548160ff021916908360ff1602179055505b8092505050919050565b6040518060600160405280600390602082028038833980820191505090505090565b826003601f016020900481019282156134695791602002820160005b8382111561343a57835183826101000a81548160ff021916908360ff16021790555092602001926001016020816000010492830192600103026133fc565b80156134675782816101000a81549060ff021916905560010160208160000104928301926001030261343a565b505b5090506134769190613584565b5090565b828054600181600116156101000203166002900490600052602060002090601f016020900481019282601f106134bb57805160ff19168380011785556134e9565b828001600101855582156134e9579182015b828111156134e85782518255916020019190600101906134cd565b5b5090506134f691906135b4565b5090565b828054828255906000526020600020908101928215613573579160200282015b828111156135725782518260006101000a81548173ffffffffffffffffffffffffffffffffffffffff021916908373ffffffffffffffffffffffffffffffffffffffff1602179055509160200191906001019061351a565b5b50905061358091906135d9565b5090565b6135b191905b808211156135ad57600081816101000a81549060ff02191690555060010161358a565b5090565b90565b6135d691905b808211156135d25760008160009055506001016135ba565b5090565b90565b61361991905b8082111561361557600081816101000a81549073ffffffffffffffffffffffffffffffffffffffff0219169055506001016135df565b5090565b9056fe466c69676874206f722074696d657374616d7020646f206e6f74206d61746368206f7261636c652072657175657374436f6e74726163742069732063757272656e746c79206e6f74206f7065726174696f6e616c496e64657820646f6573206e6f74206d61746368206f7261636c652072657175657374a165627a7a72305820926d453266ca7457af60be0e14cb5aa8a2c2b1ba711f964d03f3054982fd5bad0029",
  "source": "pragma solidity ^0.5.0;\n\n// It's important to avoid vulnerabilities due to numeric overflow bugs\n// OpenZeppelin's SafeMath library, when used correctly, protects agains such bugs\n// More info: https://www.nccgroup.trust/us/about-us/newsroom-and-events/blog/2018/november/smart-contract-insecurity-bad-arithmetic/\n\nimport \"../node_modules/openzeppelin-solidity/contracts/math/SafeMath.sol\";\n\n/************************************************** */\n/* FlightSurety Smart Contract                      */\n/************************************************** */\ncontract FlightSuretyApp {\n    using SafeMath for uint256; // Allow SafeMath functions to be called for all uint256 types (similar to \"prototype\" in Javascript)\n\n    /********************************************************************************************/\n    /*                                       DATA VARIABLES                                     */\n    /********************************************************************************************/\n\n    FlightSuretyData flightSuretyData;      //Data contract\n\n    // Flight status codees\n    uint8 private constant STATUS_CODE_UNKNOWN = 0;\n    uint8 private constant STATUS_CODE_ON_TIME = 10;\n    uint8 private constant STATUS_CODE_LATE_AIRLINE = 20;\n    uint8 private constant STATUS_CODE_LATE_WEATHER = 30;\n    uint8 private constant STATUS_CODE_LATE_TECHNICAL = 40;\n    uint8 private constant STATUS_CODE_LATE_OTHER = 50;\n\n    bool private operational = true; \n    address private contractOwner;                                  // Account used to deploy contract\n    mapping(bytes32 => Flight) private flights;                     //\n    uint256 public constant airlineFee = 10 ether;                  // Required fees to activate airlines registeration\n    uint256 public constant insurenceFee = 1 ether;                 // Maximum insurance fee\n    uint256 public constant consensusAirlinesNumber = 4;            // Number of airlines that can register before consensus requirement\n    address[] private multiConsenses;                               // All voted airlines addresses \n    address payable dataContractAddress;                            // Data contract Address\n    \n\n    struct Flight {\n        bool isRegistered;\n        uint8 statusCode;\n        uint256 updatedTimestamp;        \n        address airline;\n        string flightNumber;\n    }\n\n    //events\n    event airlineRegistred(address airline);\n    event airlineFunded(address airline);\n    event insurancePurchased(address airline, string flightNumber, uint256 timestamp);\n    event flightRegistered(string flightNumber);\n    event PassengerPayout(address airline);\n\n    /********************************************************************************************/\n    /*                                       FUNCTION MODIFIERS                                 */\n    /********************************************************************************************/\n\n    // Modifiers help avoid duplication of code. They are typically used to validate something\n    // before a function is allowed to be executed.\n\n    /**\n    * @dev Modifier that requires the \"operational\" boolean variable to be \"true\"\n    *      This is used on all state changing functions to pause the contract in \n    *      the event there is an issue that needs to be fixed\n    */\n    modifier requireIsOperational() \n    {\n         // Modify to call data contract's status\n        require(isOperational(), \"Contract is currently not operational\");  \n        _;  // All modifiers require an \"_\" which indicates where the function body will be added\n    }\n\n    /**\n    * @dev Modifier that requires the \"ContractOwner\" account to be the function caller\n    */\n    modifier requireContractOwner()\n    {\n        require(msg.sender == contractOwner, \"Caller is not contract owner\");\n        _;\n    }\n\n    modifier checkValue()\n    {\n        require(msg.value >= airlineFee, 'Invalid fund value'); \n        _;\n        uint256 refund = (msg.value).sub(airlineFee);\n        (msg.sender).transfer(refund);\n    }\n\n    modifier requireIsPassenger()\n    {\n        require(flightSuretyData.isPassenger(msg.sender), \"Invalid passenger address\");\n        _;\n    }\n    /********************************************************************************************/\n    /*                                       CONSTRUCTOR                                        */\n    /********************************************************************************************/\n\n    /**\n    * @dev Contract constructor\n    *\n    */\n    constructor(address payable _dataContractAddress) public \n    {\n        contractOwner = msg.sender;\n        dataContractAddress = _dataContractAddress;\n        flightSuretyData = FlightSuretyData(dataContractAddress);\n    }\n\n    /********************************************************************************************/\n    /*                                       UTILITY FUNCTIONS                                  */\n    /********************************************************************************************/\n\n    /**\n    * @dev Get operating status of contract\n    *\n    * @return A bool that is the current operating status\n    */      \n    function isOperational() public view returns(bool) \n    {\n        return operational;\n    }\n\n    /**\n    * @dev Sets contract operations on/off\n    *\n    * When operational mode is disabled, all write transactions except for this one will fail\n    */    \n    function setOperatingStatus(bool mode) external requireContractOwner \n    {\n        operational = mode;\n    }\n\n    function isDataContractOperational()  public view  returns(bool) \n    {\n        return  flightSuretyData.isOperational();\n    }\n\n    function isFlight(bytes32 flight) public view returns(bool) \n    {\n        return flights[flight].isRegistered;\n    }\n\n    /********************************************************************************************/\n    /*                                     SMART CONTRACT FUNCTIONS                             */\n    /********************************************************************************************/\n  \n   /**\n    * @dev Add an airline to the registration queue\n    *\n    */   \n    function registerAirline(address _newAirline) external requireIsOperational returns(bool success, uint256 votes)\n    {\n        uint256 numRegisteredAirlines = flightSuretyData.getNumberOfRegistredAirline();\n        bool isDuplicated = false;\n        votes = 0;\n        if(numRegisteredAirlines <= consensusAirlinesNumber){\n            require(flightSuretyData.isRegistered(msg.sender), \"Airline is not registred\");\n            require(flightSuretyData.isFunded(msg.sender), \"Airline is not funded\");\n            votes = multiConsenses.length;\n            for(uint256 i=0 ; i < votes ; i++){\n                if(multiConsenses[i] == msg.sender){\n                    isDuplicated = true;\n                    success = false;\n                    return (success, votes);\n                }\n            }\n            multiConsenses.push(msg.sender);\n            votes = multiConsenses.length;\n            if (votes >= (numRegisteredAirlines/2)){\n                multiConsenses = new address[](0);\n            }\n        }\n\n        if(!isDuplicated){\n            flightSuretyData.registerAirline(_newAirline);\n            success = true;\n        }\n        emit airlineRegistred(_newAirline);\n        return (success, votes);\n    }\n\n    function getRegisteredAirlines() external view returns(address[] memory){\n        return flightSuretyData.getRegisteredAirlines();\n    }\n\n    /**\n    * @dev Initial funding for the insurance. Unless there are too many delayed flights\n    *      resulting in insurance payouts, the contract should be self-sustaining\n    *\n    */   \n    function fundAirline() external payable requireIsOperational checkValue\n    {\n        require(flightSuretyData.isRegistered(msg.sender), \"Airline is not registred\");\n        require(!flightSuretyData.isFunded(msg.sender), \"Airline is already funded\");\n   \n        dataContractAddress.transfer(airlineFee);\n        flightSuretyData.fundAirline();\n        emit airlineFunded(msg.sender);\n    }\n\n    function getFundedAirlines() external view returns(address[] memory)\n    {\n        return flightSuretyData.getFundedAirlines();\n    }\n    /**\n    * @dev Register a new passenger.\n    *\n    */ \n    function registerPassenger(address _address) external \n    {\n        flightSuretyData.registerPassenger( _address);\n    }\n\n    /**\n    * @dev Passenger can buy an insurance.\n    *\n    */ \n    function buyInsurence(address _airline, string calldata _flightNumber, uint256 _timestamp) external payable requireIsOperational requireIsPassenger \n    {\n        bytes32 flightKey = flightSuretyData.getFlightKey(_airline, _flightNumber, _timestamp);\n        require (flights[flightKey].isRegistered, \"Flight is not registered\");\n        require(msg.value <= insurenceFee, \"Invaled incurence fee\");\n        flightSuretyData.buy(flightKey, msg.value);\n        emit insurancePurchased(_airline, _flightNumber, _timestamp);\n    }\n\n   /**\n    * @dev Register a future flight for insuring.\n    *\n    */  \n    function registerFlight(address _airline, string calldata _flightNumber, uint256 _timestamp) external requireIsOperational\n    {\n        bytes32 flightKey = flightSuretyData.getFlightKey(_airline, _flightNumber, _timestamp);\n        require (!flights[flightKey].isRegistered, \"Flight is already registered\");\n        flights[flightKey] = Flight({isRegistered: true, statusCode:STATUS_CODE_UNKNOWN, updatedTimestamp:_timestamp, airline: _airline, flightNumber: _flightNumber});\n        emit flightRegistered(_flightNumber);\n    }\n    \n   /**\n    * @dev Called after oracle has updated flight status\n    *\n    */  \n    function processFlightStatus(bytes32 flightKey, uint8 statusCode) internal requireIsOperational\n    {\n        require(oracleResponses[flightKey].isOpen, \"Flight status request is closed\");\n        oracleResponses[flightKey].isOpen = false;\n        flights[flightKey].statusCode = statusCode;\n        if(statusCode == STATUS_CODE_LATE_AIRLINE)\n        {\n            flightSuretyData.creditInsurees(flightKey);\n        }\n        \n    }\n\n    function payout() public requireIsOperational\n    {\n        emit PassengerPayout(msg.sender);\n        flightSuretyData.pay();\n        \n    }\n\n    // Generate a request for oracles to fetch flight information\n    function fetchFlightStatus(address airline, string calldata flight, uint256 timestamp) external requireIsOperational\n    {\n        uint8 index = getRandomIndex(msg.sender);\n        // Generate a unique key for storing the request\n        bytes32 key = keccak256(abi.encodePacked(index, airline, flight, timestamp));\n        oracleResponses[key] = ResponseInfo({requester: msg.sender, isOpen: true});\n        emit OracleRequest(index, airline, flight, timestamp);\n    } \n\n\n// region ORACLE MANAGEMENT\n\n    // Incremented to add pseudo-randomness at various points\n    uint8 private nonce = 0;    \n\n    // Fee to be paid when registering oracle\n    uint256 public constant REGISTRATION_FEE = 1 ether;\n\n    // Number of oracles that must respond for valid status\n    uint256 private constant MIN_RESPONSES = 3;\n\n\n    struct Oracle {\n        bool isRegistered;\n        uint8[3] indexes;        \n    }\n\n    // Track all registered oracles\n    mapping(address => Oracle) private oracles;\n\n    // Model for responses from oracles\n    struct ResponseInfo {\n        address requester;                              // Account that requested status\n        bool isOpen;                                    // If open, oracle responses are accepted\n        mapping(uint8 => address[]) responses;          // Mapping key is the status code reported\n                                                        // This lets us group responses and identify\n                                                        // the response that majority of the oracles\n    }\n\n    // Track all oracle responses\n    // Key = hash(index, flight, timestamp)\n    mapping(bytes32 => ResponseInfo) private oracleResponses;\n\n    // Event fired each time an oracle submits a response\n    event FlightStatusInfo(address airline, string flight, uint256 timestamp, uint8 status);\n\n    event OracleReport(address airline, string flight, uint256 timestamp, uint8 status);\n\n    // Event fired when flight status request is submitted\n    // Oracles track this and if they have a matching index\n    // they fetch data and submit a response\n    event OracleRequest(uint8 index, address airline, string flight, uint256 timestamp);\n\n\n    // Register an oracle with the contract\n    function registerOracle\n                            (\n                            )\n                            external\n                            payable\n                            requireIsOperational\n    {\n        // Require registration fee\n        require(msg.value >= REGISTRATION_FEE, \"Registration fee is required\");\n\n        uint8[3] memory indexes = generateIndexes(msg.sender);\n\n        oracles[msg.sender] = Oracle({\n                                        isRegistered: true,\n                                        indexes: indexes\n                                    });\n                                    \n    }\n\n    function getMyIndexes\n                            (\n                            )\n                            view\n                            external\n                            requireIsOperational\n                            returns( uint8[3] memory) \n    {\n        require(oracles[msg.sender].isRegistered, \"Not registered as an oracle\");\n\n        return oracles[msg.sender].indexes;\n    }\n\n\n\n\n    // Called by oracle when a response is available to an outstanding request\n    // For the response to be accepted, there must be a pending request that is open\n    // and matches one of the three Indexes randomly assigned to the oracle at the\n    // time of registration (i.e. uninvited oracles are not welcome)\n    function submitOracleResponse\n                        (\n                            uint8 index,\n                            address airline,\n                            string calldata flight,\n                            uint256 timestamp,\n                            uint8 statusCode\n                        )\n                        external\n                        requireIsOperational\n    {\n        require((oracles[msg.sender].indexes[0] == index) || (oracles[msg.sender].indexes[1] == index) || (oracles[msg.sender].indexes[2] == index), \"Index does not match oracle request\");\n\n\n        bytes32 key = keccak256(abi.encodePacked(index, airline, flight, timestamp)); \n        require(oracleResponses[key].isOpen, \"Flight or timestamp do not match oracle request\");\n\n        oracleResponses[key].responses[statusCode].push(msg.sender);\n\n        // Information isn't considered verified until at least MIN_RESPONSES\n        // oracles respond with the *** same *** information\n        emit OracleReport(airline, flight, timestamp, statusCode);\n        if (oracleResponses[key].responses[statusCode].length >= MIN_RESPONSES) {\n\n            // Handle flight status as appropriate\n            processFlightStatus(key, statusCode);\n            emit FlightStatusInfo(airline, flight, timestamp, statusCode);\n        }\n    }\n\n\n    function getFlightKey\n                        (\n                            address airline,\n                            string memory flight,\n                            uint256 timestamp\n                        )\n                        pure\n                        internal\n                        returns(bytes32) \n    {\n        return keccak256(abi.encodePacked(airline, flight, timestamp));\n    }\n\n    // Returns array of three non-duplicating integers from 0-9\n    function generateIndexes\n                            (                       \n                                address account         \n                            )\n                            internal\n                            returns(uint8[3] memory)\n    {\n        uint8[3] memory indexes;\n        indexes[0] = getRandomIndex(account);\n        \n        indexes[1] = indexes[0];\n        while(indexes[1] == indexes[0]) {\n            indexes[1] = getRandomIndex(account);\n        }\n\n        indexes[2] = indexes[1];\n        while((indexes[2] == indexes[0]) || (indexes[2] == indexes[1])) {\n            indexes[2] = getRandomIndex(account);\n        }\n\n        return indexes;\n    }\n\n    // Returns array of three non-duplicating integers from 0-9\n    function getRandomIndex\n                            (\n                                address account\n                            )\n                            internal\n                            returns (uint8)\n    {\n        uint8 maxValue = 10;\n\n        // Pseudo random number...the incrementing nonce adds variation\n        uint8 random = uint8(uint256(keccak256(abi.encodePacked(blockhash(block.number - nonce++), account))) % maxValue);\n\n        if (nonce > 250) {\n            nonce = 0;  // Can only fetch blockhashes for last 256 blocks so we adapt\n        }\n\n        return random;\n    }\n\n// endregion\n\n}   \n\ncontract FlightSuretyData {\n    function isOperational() public view returns(bool);\n    function getNumberOfRegistredAirline() external view returns(uint256);\n    function registerAirline(address _newAirline) external returns(bool);\n    function getRegisteredAirlines() external view returns(address[] memory);\n    function isRegistered(address airline) public view returns(bool);\n    function fundAirline() external ;\n    function getFundedAirlines() external view returns(address[] memory);\n    function isFunded(address airline) public view returns(bool);\n    function registerPassenger(address _address) external;\n    function isPassenger(address _address) public view returns(bool);\n    function buy(bytes32 flightKey, uint256 amount) external payable;\n    function getFlightKey(address airline, string calldata flight, uint256 timestamp) pure external returns(bytes32);\n    function creditInsurees(bytes32 flightKey) external view;\n    function pay() external payable;\n}",
  "sourcePath": "/home/wafa/x/FlightSurety/contracts/FlightSuretyApp.sol",
  "compiler": {
    "name": "solc",
    "version": "0.5.8+commit.23d335f2.Emscripten.clang"
  },
  "schemaVersion": "3.0.0-beta.2",
  "updatedAt": "2019-05-06T05:54:02.692Z",
  "devdoc": {
    "methods": {
      "buyInsurence(address,string,uint256)": {
        "details": "Passenger can buy an insurance.    "
      },
      "constructor": {
        "details": "Contract constructor    "
      },
      "fundAirline()": {
        "details": "Initial funding for the insurance. Unless there are too many delayed flights     resulting in insurance payouts, the contract should be self-sustaining    "
      },
      "isOperational()": {
        "details": "Get operating status of contract",
        "return": "A bool that is the current operating status"
      },
      "registerAirline(address)": {
        "details": "Add an airline to the registration queue    "
      },
      "registerFlight(address,string,uint256)": {
        "details": "Register a future flight for insuring.    "
      },
      "registerPassenger(address)": {
        "details": "Register a new passenger.    "
      },
      "setOperatingStatus(bool)": {
        "details": "Sets contract operations on/off    * When operational mode is disabled, all write transactions except for this one will fail"
      }
    }
  },
  "userdoc": {
    "methods": {},
    "notice": "************************************************ "
  }
}