{
  "contractName": "FlightSuretyData",
  "abi": [
    {
      "inputs": [
        {
          "name": "firstAirline",
          "type": "address"
        }
      ],
      "payable": false,
      "stateMutability": "nonpayable",
      "type": "constructor"
    },
    {
      "payable": true,
      "stateMutability": "payable",
      "type": "fallback"
    },
    {
      "anonymous": false,
      "inputs": [
        {
          "indexed": false,
          "name": "newAirline",
          "type": "address"
        }
      ],
      "name": "AirlineRegistred",
      "type": "event"
    },
    {
      "anonymous": false,
      "inputs": [
        {
          "indexed": false,
          "name": "_address",
          "type": "address"
        }
      ],
      "name": "AirlineFunded",
      "type": "event"
    },
    {
      "anonymous": false,
      "inputs": [
        {
          "indexed": false,
          "name": "_address",
          "type": "address"
        }
      ],
      "name": "PassengerRegidtered",
      "type": "event"
    },
    {
      "anonymous": false,
      "inputs": [
        {
          "indexed": false,
          "name": "_address",
          "type": "address"
        },
        {
          "indexed": false,
          "name": "flightKey",
          "type": "bytes32"
        }
      ],
      "name": "PassengerInsured",
      "type": "event"
    },
    {
      "anonymous": false,
      "inputs": [
        {
          "indexed": false,
          "name": "_addresses",
          "type": "address[]"
        },
        {
          "indexed": false,
          "name": "flightKey",
          "type": "bytes32"
        }
      ],
      "name": "PassengerCreditUpdated",
      "type": "event"
    },
    {
      "anonymous": false,
      "inputs": [
        {
          "indexed": false,
          "name": "_address",
          "type": "address"
        },
        {
          "indexed": false,
          "name": "amount",
          "type": "uint256"
        }
      ],
      "name": "PassengerPayout",
      "type": "event"
    },
    {
      "constant": true,
      "inputs": [],
      "name": "isOperational",
      "outputs": [
        {
          "name": "",
          "type": "bool"
        }
      ],
      "payable": false,
      "stateMutability": "view",
      "type": "function"
    },
    {
      "constant": false,
      "inputs": [
        {
          "name": "mode",
          "type": "bool"
        }
      ],
      "name": "setOperatingStatus",
      "outputs": [],
      "payable": false,
      "stateMutability": "nonpayable",
      "type": "function"
    },
    {
      "constant": false,
      "inputs": [
        {
          "name": "contractAddress",
          "type": "address"
        }
      ],
      "name": "authorizeCaller",
      "outputs": [],
      "payable": false,
      "stateMutability": "nonpayable",
      "type": "function"
    },
    {
      "constant": false,
      "inputs": [
        {
          "name": "contractAddress",
          "type": "address"
        }
      ],
      "name": "deauthorizeCaller",
      "outputs": [],
      "payable": false,
      "stateMutability": "nonpayable",
      "type": "function"
    },
    {
      "constant": true,
      "inputs": [
        {
          "name": "contractAddress",
          "type": "address"
        }
      ],
      "name": "isCallerAuthorized",
      "outputs": [
        {
          "name": "",
          "type": "bool"
        }
      ],
      "payable": false,
      "stateMutability": "view",
      "type": "function"
    },
    {
      "constant": true,
      "inputs": [
        {
          "name": "airline",
          "type": "address"
        }
      ],
      "name": "isRegistered",
      "outputs": [
        {
          "name": "",
          "type": "bool"
        }
      ],
      "payable": false,
      "stateMutability": "view",
      "type": "function"
    },
    {
      "constant": true,
      "inputs": [
        {
          "name": "airline",
          "type": "address"
        }
      ],
      "name": "isFunded",
      "outputs": [
        {
          "name": "",
          "type": "bool"
        }
      ],
      "payable": false,
      "stateMutability": "view",
      "type": "function"
    },
    {
      "constant": true,
      "inputs": [
        {
          "name": "_address",
          "type": "address"
        }
      ],
      "name": "isPassenger",
      "outputs": [
        {
          "name": "",
          "type": "bool"
        }
      ],
      "payable": false,
      "stateMutability": "view",
      "type": "function"
    },
    {
      "constant": false,
      "inputs": [
        {
          "name": "_newAirline",
          "type": "address"
        }
      ],
      "name": "registerAirline",
      "outputs": [
        {
          "name": "",
          "type": "bool"
        }
      ],
      "payable": false,
      "stateMutability": "nonpayable",
      "type": "function"
    },
    {
      "constant": true,
      "inputs": [],
      "name": "getRegisteredAirlines",
      "outputs": [
        {
          "name": "",
          "type": "address[]"
        }
      ],
      "payable": false,
      "stateMutability": "view",
      "type": "function"
    },
    {
      "constant": true,
      "inputs": [],
      "name": "getNumberOfRegistredAirline",
      "outputs": [
        {
          "name": "",
          "type": "uint256"
        }
      ],
      "payable": false,
      "stateMutability": "view",
      "type": "function"
    },
    {
      "constant": false,
      "inputs": [],
      "name": "fundAirline",
      "outputs": [],
      "payable": false,
      "stateMutability": "nonpayable",
      "type": "function"
    },
    {
      "constant": true,
      "inputs": [],
      "name": "getFundedAirlines",
      "outputs": [
        {
          "name": "",
          "type": "address[]"
        }
      ],
      "payable": false,
      "stateMutability": "view",
      "type": "function"
    },
    {
      "constant": false,
      "inputs": [
        {
          "name": "_address",
          "type": "address"
        }
      ],
      "name": "registerPassenger",
      "outputs": [],
      "payable": false,
      "stateMutability": "nonpayable",
      "type": "function"
    },
    {
      "constant": true,
      "inputs": [],
      "name": "getPassengers",
      "outputs": [
        {
          "name": "",
          "type": "address[]"
        }
      ],
      "payable": false,
      "stateMutability": "view",
      "type": "function"
    },
    {
      "constant": true,
      "inputs": [
        {
          "name": "airline",
          "type": "address"
        },
        {
          "name": "flight",
          "type": "string"
        },
        {
          "name": "timestamp",
          "type": "uint256"
        }
      ],
      "name": "getFlightKey",
      "outputs": [
        {
          "name": "",
          "type": "bytes32"
        }
      ],
      "payable": false,
      "stateMutability": "pure",
      "type": "function"
    },
    {
      "constant": false,
      "inputs": [
        {
          "name": "flightKey",
          "type": "bytes32"
        },
        {
          "name": "amount",
          "type": "uint256"
        }
      ],
      "name": "buy",
      "outputs": [],
      "payable": true,
      "stateMutability": "payable",
      "type": "function"
    },
    {
      "constant": false,
      "inputs": [
        {
          "name": "flightKey",
          "type": "bytes32"
        }
      ],
      "name": "getAddress",
      "outputs": [
        {
          "name": "",
          "type": "address[]"
        }
      ],
      "payable": false,
      "stateMutability": "nonpayable",
      "type": "function"
    },
    {
      "constant": false,
      "inputs": [
        {
          "name": "flightKey",
          "type": "bytes32"
        }
      ],
      "name": "creditInsurees",
      "outputs": [],
      "payable": true,
      "stateMutability": "payable",
      "type": "function"
    },
    {
      "constant": false,
      "inputs": [],
      "name": "pay",
      "outputs": [],
      "payable": true,
      "stateMutability": "payable",
      "type": "function"
    },
    {
      "constant": false,
      "inputs": [],
      "name": "fund",
      "outputs": [],
      "payable": true,
      "stateMutability": "payable",
      "type": "function"
    }
  ],
  "bytecode": "0x60806040526001600060146101000a81548160ff02191690831515021790555034801561002b57600080fd5b506040516020806125848339810180604052602081101561004b57600080fd5b8101908080519060200190929190505050336000806101000a81548173ffffffffffffffffffffffffffffffffffffffff021916908373ffffffffffffffffffffffffffffffffffffffff16021790555060048190806001815401808255809150509060018203906000526020600020016000909192909190916101000a81548173ffffffffffffffffffffffffffffffffffffffff021916908373ffffffffffffffffffffffffffffffffffffffff1602179055505060405180606001604052808273ffffffffffffffffffffffffffffffffffffffff16815260200160011515815260200160001515815250600260008373ffffffffffffffffffffffffffffffffffffffff1673ffffffffffffffffffffffffffffffffffffffff16815260200190815260200160002060008201518160000160006101000a81548173ffffffffffffffffffffffffffffffffffffffff021916908373ffffffffffffffffffffffffffffffffffffffff16021790555060208201518160000160146101000a81548160ff02191690831515021790555060408201518160000160156101000a81548160ff02191690831515021790555090505050612372806102126000396000f3fe608060405260043610610147576000357c0100000000000000000000000000000000000000000000000000000000900480636ac23fdc116100c8578063bdfd98771161008c578063bdfd9877146105b2578063c23bcf091461061b578063c3c5a54714610687578063cc2f6eba146106f0578063cd905dff1461071e578063dfc0dff01461074d57610147565b80636ac23fdc1461046857806377ed850a146104d457806394c15694146105405780639ed1892714610591578063b60d4288146105a857610147565b80632c388d5d1161010f5780632c388d5d146102c95780634929d0811461031a5780635689b24914610383578063679d46e2146103ec5780636873c21d1461041757610147565b80630ddeb63214610151578063110466ed146101895780631b9265b8146101c65780631dd13a1d146101d057806321f8a72114610239575b61014f610811565b005b6101876004803603604081101561016757600080fd5b810190808035906020019092919080359060200190929190505050610813565b005b34801561019557600080fd5b506101c4600480360360208110156101ac57600080fd5b81019080803515159060200190929190505050610b13565b005b6101ce610bf2565b005b3480156101dc57600080fd5b5061021f600480360360208110156101f357600080fd5b81019080803573ffffffffffffffffffffffffffffffffffffffff169060200190929190505050610f17565b604051808215151515815260200191505060405180910390f35b34801561024557600080fd5b506102726004803603602081101561025c57600080fd5b8101908080359060200190929190505050610f70565b6040518080602001828103825283818151815260200191508051906020019060200280838360005b838110156102b557808201518184015260208101905061029a565b505050509050019250505060405180910390f35b3480156102d557600080fd5b50610318600480360360208110156102ec57600080fd5b81019080803573ffffffffffffffffffffffffffffffffffffffff169060200190929190505050611011565b005b34801561032657600080fd5b506103696004803603602081101561033d57600080fd5b81019080803573ffffffffffffffffffffffffffffffffffffffff16906020019092919050505061112d565b604051808215151515815260200191505060405180910390f35b34801561038f57600080fd5b506103d2600480360360208110156103a657600080fd5b81019080803573ffffffffffffffffffffffffffffffffffffffff169060200190929190505050611245565b604051808215151515815260200191505060405180910390f35b3480156103f857600080fd5b5061040161129e565b6040518082815260200191505060405180910390f35b34801561042357600080fd5b506104666004803603602081101561043a57600080fd5b81019080803573ffffffffffffffffffffffffffffffffffffffff1690602001909291905050506112ab565b005b34801561047457600080fd5b5061047d6113bf565b6040518080602001828103825283818151815260200191508051906020019060200280838360005b838110156104c05780820151818401526020810190506104a5565b505050509050019250505060405180910390f35b3480156104e057600080fd5b506104e961144d565b6040518080602001828103825283818151815260200191508051906020019060200280838360005b8381101561052c578082015181840152602081019050610511565b505050509050019250505060405180910390f35b34801561054c57600080fd5b5061058f6004803603602081101561056357600080fd5b81019080803573ffffffffffffffffffffffffffffffffffffffff1690602001909291905050506114db565b005b34801561059d57600080fd5b506105a661168f565b005b6105b0610811565b005b3480156105be57600080fd5b50610601600480360360208110156105d557600080fd5b81019080803573ffffffffffffffffffffffffffffffffffffffff1690602001909291905050506118de565b604051808215151515815260200191505060405180910390f35b34801561062757600080fd5b50610630611def565b6040518080602001828103825283818151815260200191508051906020019060200280838360005b83811015610673578082015181840152602081019050610658565b505050509050019250505060405180910390f35b34801561069357600080fd5b506106d6600480360360208110156106aa57600080fd5b81019080803573ffffffffffffffffffffffffffffffffffffffff169060200190929190505050611e7d565b604051808215151515815260200191505060405180910390f35b61071c6004803603602081101561070657600080fd5b8101908080359060200190929190505050611ed6565b005b34801561072a57600080fd5b506107336121c5565b604051808215151515815260200191505060405180910390f35b34801561075957600080fd5b506107fb6004803603606081101561077057600080fd5b81019080803573ffffffffffffffffffffffffffffffffffffffff169060200190929190803590602001906401000000008111156107ad57600080fd5b8201836020820111156107bf57600080fd5b803590602001918460018302840111640100000000831117156107e157600080fd5b9091929391929390803590602001909291905050506121db565b6040518082815260200191505060405180910390f35b565b600060149054906101000a900460ff16610878576040517f08c379a00000000000000000000000000000000000000000000000000000000081526004018080602001828103825260258152602001806123226025913960400191505060405180910390fd5b33600560008273ffffffffffffffffffffffffffffffffffffffff1673ffffffffffffffffffffffffffffffffffffffff16815260200190815260200160002060020160009054906101000a900460ff1661093b576040517f08c379a00000000000000000000000000000000000000000000000000000000081526004018080602001828103825260198152602001807f496e76616c69642070617373656e67657220616464726573730000000000000081525060200191505060405180910390fd5b6000600860003373ffffffffffffffffffffffffffffffffffffffff1673ffffffffffffffffffffffffffffffffffffffff1681526020019081526020016000208054905010156109d7576040517f08c379a00000000000000000000000000000000000000000000000000000000081526004018080602001828103825260328152602001806122f06032913960400191505060405180910390fd5b600760008481526020019081526020016000203390806001815401808255809150509060018203906000526020600020016000909192909190916101000a81548173ffffffffffffffffffffffffffffffffffffffff021916908373ffffffffffffffffffffffffffffffffffffffff1602179055505081600960003373ffffffffffffffffffffffffffffffffffffffff1673ffffffffffffffffffffffffffffffffffffffff1681526020019081526020016000206000858152602001908152602001600020819055507f260ad53843f4d27e80bd7cb7700be43d0c0593ccee937f3941b7dea7c62495033384604051808373ffffffffffffffffffffffffffffffffffffffff1673ffffffffffffffffffffffffffffffffffffffff1681526020018281526020019250505060405180910390a1505050565b6000809054906101000a900473ffffffffffffffffffffffffffffffffffffffff1673ffffffffffffffffffffffffffffffffffffffff163373ffffffffffffffffffffffffffffffffffffffff1614610bd5576040517f08c379a000000000000000000000000000000000000000000000000000000000815260040180806020018281038252601c8152602001807f43616c6c6572206973206e6f7420636f6e7472616374206f776e65720000000081525060200191505060405180910390fd5b80600060146101000a81548160ff02191690831515021790555050565b600060149054906101000a900460ff16610c57576040517f08c379a00000000000000000000000000000000000000000000000000000000081526004018080602001828103825260258152602001806123226025913960400191505060405180910390fd5b33600560008273ffffffffffffffffffffffffffffffffffffffff1673ffffffffffffffffffffffffffffffffffffffff16815260200190815260200160002060020160009054906101000a900460ff16610d1a576040517f08c379a00000000000000000000000000000000000000000000000000000000081526004018080602001828103825260198152602001807f496e76616c69642070617373656e67657220616464726573730000000000000081525060200191505060405180910390fd5b6000600560003373ffffffffffffffffffffffffffffffffffffffff1673ffffffffffffffffffffffffffffffffffffffff1681526020019081526020016000206001015411610dd2576040517f08c379a00000000000000000000000000000000000000000000000000000000081526004018080602001828103825260128152602001807f5468657265206973206e6f207061796f7574000000000000000000000000000081525060200191505060405180910390fd5b6000600560003373ffffffffffffffffffffffffffffffffffffffff1673ffffffffffffffffffffffffffffffffffffffff1681526020019081526020016000206001015490506000600560003373ffffffffffffffffffffffffffffffffffffffff1673ffffffffffffffffffffffffffffffffffffffff168152602001908152602001600020600101819055503373ffffffffffffffffffffffffffffffffffffffff166108fc829081150290604051600060405180830381858888f19350505050158015610ea7573d6000803e3d6000fd5b507f89349e79d73c3503dda08b74072e4d2e36d77cb611996df47e720e8f3be97cc03382604051808373ffffffffffffffffffffffffffffffffffffffff1673ffffffffffffffffffffffffffffffffffffffff1681526020018281526020019250505060405180910390a15050565b6000600560008373ffffffffffffffffffffffffffffffffffffffff1673ffffffffffffffffffffffffffffffffffffffff16815260200190815260200160002060020160009054906101000a900460ff169050919050565b60606007600083815260200190815260200160002080548060200260200160405190810160405280929190818152602001828054801561100557602002820191906000526020600020905b8160009054906101000a900473ffffffffffffffffffffffffffffffffffffffff1673ffffffffffffffffffffffffffffffffffffffff1681526020019060010190808311610fbb575b50505050509050919050565b6000809054906101000a900473ffffffffffffffffffffffffffffffffffffffff1673ffffffffffffffffffffffffffffffffffffffff163373ffffffffffffffffffffffffffffffffffffffff16146110d3576040517f08c379a000000000000000000000000000000000000000000000000000000000815260040180806020018281038252601c8152602001807f43616c6c6572206973206e6f7420636f6e7472616374206f776e65720000000081525060200191505060405180910390fd5b60018060008373ffffffffffffffffffffffffffffffffffffffff1673ffffffffffffffffffffffffffffffffffffffff16815260200190815260200160002060006101000a81548160ff02191690831515021790555050565b60008060009054906101000a900473ffffffffffffffffffffffffffffffffffffffff1673ffffffffffffffffffffffffffffffffffffffff163373ffffffffffffffffffffffffffffffffffffffff16146111f1576040517f08c379a000000000000000000000000000000000000000000000000000000000815260040180806020018281038252601c8152602001807f43616c6c6572206973206e6f7420636f6e7472616374206f776e65720000000081525060200191505060405180910390fd5b600160008373ffffffffffffffffffffffffffffffffffffffff1673ffffffffffffffffffffffffffffffffffffffff16815260200190815260200160002060009054906101000a900460ff169050919050565b6000600260008373ffffffffffffffffffffffffffffffffffffffff1673ffffffffffffffffffffffffffffffffffffffff16815260200190815260200160002060000160159054906101000a900460ff169050919050565b6000600480549050905090565b6000809054906101000a900473ffffffffffffffffffffffffffffffffffffffff1673ffffffffffffffffffffffffffffffffffffffff163373ffffffffffffffffffffffffffffffffffffffff161461136d576040517f08c379a000000000000000000000000000000000000000000000000000000000815260040180806020018281038252601c8152602001807f43616c6c6572206973206e6f7420636f6e7472616374206f776e65720000000081525060200191505060405180910390fd5b600160008273ffffffffffffffffffffffffffffffffffffffff1673ffffffffffffffffffffffffffffffffffffffff16815260200190815260200160002060006101000a81549060ff021916905550565b6060600680548060200260200160405190810160405280929190818152602001828054801561144357602002820191906000526020600020905b8160009054906101000a900473ffffffffffffffffffffffffffffffffffffffff1673ffffffffffffffffffffffffffffffffffffffff16815260200190600101908083116113f9575b5050505050905090565b606060038054806020026020016040519081016040528092919081815260200182805480156114d157602002820191906000526020600020905b8160009054906101000a900473ffffffffffffffffffffffffffffffffffffffff1673ffffffffffffffffffffffffffffffffffffffff1681526020019060010190808311611487575b5050505050905090565b60405180606001604052808273ffffffffffffffffffffffffffffffffffffffff1681526020016000815260200160011515815250600560008373ffffffffffffffffffffffffffffffffffffffff1673ffffffffffffffffffffffffffffffffffffffff16815260200190815260200160002060008201518160000160006101000a81548173ffffffffffffffffffffffffffffffffffffffff021916908373ffffffffffffffffffffffffffffffffffffffff1602179055506020820151816001015560408201518160020160006101000a81548160ff02191690831515021790555090505060068190806001815401808255809150509060018203906000526020600020016000909192909190916101000a81548173ffffffffffffffffffffffffffffffffffffffff021916908373ffffffffffffffffffffffffffffffffffffffff160217905550507f42b32d980767dae2aa3a39faed1245ea1fbcfe737ed2f596dadca50e06127ed581604051808273ffffffffffffffffffffffffffffffffffffffff1673ffffffffffffffffffffffffffffffffffffffff16815260200191505060405180910390a150565b600060149054906101000a900460ff166116f4576040517f08c379a00000000000000000000000000000000000000000000000000000000081526004018080602001828103825260258152602001806123226025913960400191505060405180910390fd5b32600260008273ffffffffffffffffffffffffffffffffffffffff1673ffffffffffffffffffffffffffffffffffffffff16815260200190815260200160002060000160149054906101000a900460ff166117b7576040517f08c379a00000000000000000000000000000000000000000000000000000000081526004018080602001828103825260188152602001807f4169726c696e65206973206e6f7420726567697374726564000000000000000081525060200191505060405180910390fd5b6001600260003273ffffffffffffffffffffffffffffffffffffffff1673ffffffffffffffffffffffffffffffffffffffff16815260200190815260200160002060000160156101000a81548160ff02191690831515021790555060033290806001815401808255809150509060018203906000526020600020016000909192909190916101000a81548173ffffffffffffffffffffffffffffffffffffffff021916908373ffffffffffffffffffffffffffffffffffffffff160217905550507f3c348ba34685212d5d04f432a9e569b642b180df0227a6b0c899050c4acb7af832604051808273ffffffffffffffffffffffffffffffffffffffff1673ffffffffffffffffffffffffffffffffffffffff16815260200191505060405180910390a150565b60008060149054906101000a900460ff16611944576040517f08c379a00000000000000000000000000000000000000000000000000000000081526004018080602001828103825260258152602001806123226025913960400191505060405180910390fd5b32600260008273ffffffffffffffffffffffffffffffffffffffff1673ffffffffffffffffffffffffffffffffffffffff16815260200190815260200160002060000160149054906101000a900460ff16611a07576040517f08c379a00000000000000000000000000000000000000000000000000000000081526004018080602001828103825260188152602001807f4169726c696e65206973206e6f7420726567697374726564000000000000000081525060200191505060405180910390fd5b32600260008273ffffffffffffffffffffffffffffffffffffffff1673ffffffffffffffffffffffffffffffffffffffff16815260200190815260200160002060000160159054906101000a900460ff16611aca576040517f08c379a00000000000000000000000000000000000000000000000000000000081526004018080602001828103825260158152602001807f4169726c696e65206973206e6f742066756e646564000000000000000000000081525060200191505060405180910390fd5b600073ffffffffffffffffffffffffffffffffffffffff168473ffffffffffffffffffffffffffffffffffffffff161415611b6d576040517f08c379a00000000000000000000000000000000000000000000000000000000081526004018080602001828103825260178152602001807f496e76616c6964206169726c696e65206164647265737300000000000000000081525060200191505060405180910390fd5b600260008573ffffffffffffffffffffffffffffffffffffffff1673ffffffffffffffffffffffffffffffffffffffff16815260200190815260200160002060000160149054906101000a900460ff1615611c30576040517f08c379a000000000000000000000000000000000000000000000000000000000815260040180806020018281038252601e8152602001807f4169726c696e6520697320616c726561647920726567697374657265642e000081525060200191505060405180910390fd5b60405180606001604052808573ffffffffffffffffffffffffffffffffffffffff16815260200160011515815260200160001515815250600260008673ffffffffffffffffffffffffffffffffffffffff1673ffffffffffffffffffffffffffffffffffffffff16815260200190815260200160002060008201518160000160006101000a81548173ffffffffffffffffffffffffffffffffffffffff021916908373ffffffffffffffffffffffffffffffffffffffff16021790555060208201518160000160146101000a81548160ff02191690831515021790555060408201518160000160156101000a81548160ff02191690831515021790555090505060048490806001815401808255809150509060018203906000526020600020016000909192909190916101000a81548173ffffffffffffffffffffffffffffffffffffffff021916908373ffffffffffffffffffffffffffffffffffffffff16021790555050600260008573ffffffffffffffffffffffffffffffffffffffff1673ffffffffffffffffffffffffffffffffffffffff16815260200190815260200160002060000160149054906101000a900460ff1692505050919050565b60606004805480602002602001604051908101604052809291908181526020018280548015611e7357602002820191906000526020600020905b8160009054906101000a900473ffffffffffffffffffffffffffffffffffffffff1673ffffffffffffffffffffffffffffffffffffffff1681526020019060010190808311611e29575b5050505050905090565b6000600260008373ffffffffffffffffffffffffffffffffffffffff1673ffffffffffffffffffffffffffffffffffffffff16815260200190815260200160002060000160149054906101000a900460ff169050919050565b600060149054906101000a900460ff16611f3b576040517f08c379a00000000000000000000000000000000000000000000000000000000081526004018080602001828103825260258152602001806123226025913960400191505060405180910390fd5b600060076000838152602001908152602001600020805490501015611fab576040517f08c379a000000000000000000000000000000000000000000000000000000000815260040180806020018281038252602b8152602001806122c5602b913960400191505060405180910390fd5b60008090505b60076000838152602001908152602001600020805490508110156120fc576000600760008481526020019081526020016000208281548110611fef57fe5b9060005260206000200160009054906101000a900473ffffffffffffffffffffffffffffffffffffffff1690506000600960003373ffffffffffffffffffffffffffffffffffffffff1673ffffffffffffffffffffffffffffffffffffffff16815260200190815260200160002060008581526020019081526020016000205490506120ec61209b600f61208d600a8561226290919063ffffffff16565b61227690919063ffffffff16565b600560008573ffffffffffffffffffffffffffffffffffffffff1673ffffffffffffffffffffffffffffffffffffffff168152602001908152602001600020600101546122aa90919063ffffffff16565b5050508080600101915050611fb1565b507fcce46ac6ff47f9dba295ee7d5d154fe5498fcb89a1ae8ce8bfd60dda136414df6007600083815260200190815260200160002082604051808060200183815260200182810382528481815481526020019150805480156121b357602002820191906000526020600020905b8160009054906101000a900473ffffffffffffffffffffffffffffffffffffffff1673ffffffffffffffffffffffffffffffffffffffff1681526020019060010190808311612169575b5050935050505060405180910390a150565b60008060149054906101000a900460ff16905090565b600084848484604051602001808573ffffffffffffffffffffffffffffffffffffffff1673ffffffffffffffffffffffffffffffffffffffff166c0100000000000000000000000002815260140184848082843780830192505050828152602001945050505050604051602081830303815290604052805190602001209050949350505050565b600081838161226d57fe5b04905092915050565b60008083141561228957600090506122a4565b81830290508183828161229857fe5b04146122a057fe5b8090505b92915050565b60008183019050828110156122bb57fe5b8090509291505056fe54686520666c6967687420646f6573206e6f74206861766520696e737572616e6365207265636f7264656470617373656e6765722068617320616c726561647920616e20696e637572656e636520666f72207468697320666c69676874436f6e74726163742069732063757272656e746c79206e6f74206f7065726174696f6e616ca165627a7a7230582049c6eec965b2b7370c6989da233a5a8faf325bcaaafce34443a513a4ddfabe310029",
  "source": "pragma solidity ^0.5.0;\n\nimport \"../contracts/SafeMath.sol\";\n\ncontract FlightSuretyData {\n    using SafeMath for uint256;\n\n    /********************************************************************************************/\n    /*                                       DATA VARIABLES                                     */\n    /********************************************************************************************/\n\n    address private contractOwner;                                      // Account used to deploy contract\n    bool private operational = true;                                    // Blocks all state changes throughout the contract if false\n    mapping(address => bool) private authorizedContracts;               // Address of the allowed contracts to deal with the contract\n    mapping (address => Airline) private airlines;                      // info of all registered airlines\n    address[] private activeAirlines;                                   // All funded airlines addresses\n    address[] private registeredAirlines;                               // All registered airlines addresses\n    mapping (address => Passenger) private insuredPassengers;           // Passengers info\n    address[] private passengers;                                       // All passengres addresses\n    mapping (bytes32 => address[]) private boughtIncurence;\n    mapping (address =>bytes32[]) allFlights;\n    mapping (address => mapping(bytes32 => uint256)) insuredFlight;\n    \n    //Airline Struct\n    struct Airline {\n        address airlineAddress;\n        bool isRegistered;\n        bool isFunded;\n    }\n\n    //Passenger Struct\n    struct Passenger{\n        address passengerAddress;\n        uint256 credit;\n        bool isRegistered;\n    }\n\n    /********************************************************************************************/\n    /*                                       EVENT DEFINITIONS                                  */\n    /********************************************************************************************/\n\n    event AirlineRegistred(address newAirline);\n    event AirlineFunded(address _address);\n    event PassengerRegidtered(address _address);\n    event PassengerInsured(address _address, bytes32 flightKey);\n    event PassengerCreditUpdated(address[] _addresses, bytes32 flightKey);\n    event PassengerPayout(address _address, uint256 amount);\n\n    /**\n    * @dev Constructor\n    *      The deploying account becomes contractOwner\n    */\n    constructor(address firstAirline) public \n    {\n        contractOwner = msg.sender;\n        registeredAirlines.push(firstAirline);\n        airlines[firstAirline] = Airline({isRegistered: true, isFunded: false, airlineAddress: firstAirline});\n    }\n\n    /********************************************************************************************/\n    /*                                       FUNCTION MODIFIERS                                 */\n    /********************************************************************************************/\n\n    // Modifiers help avoid duplication of code. They are typically used to validate something\n    // before a function is allowed to be executed.\n\n    /**\n    * @dev Modifier that requires the \"operational\" boolean variable to be \"true\"\n    *      This is used on all state changing functions to pause the contract in \n    *      the event there is an issue that needs to be fixed\n    */\n    modifier requireIsOperational() \n    {\n        require(operational, \"Contract is currently not operational\");\n        _;\n    }\n\n    /**\n    * @dev Modifier that requires the \"ContractOwner\" account to be the function caller\n    */\n    modifier requireContractOwner()\n    {\n        require(msg.sender == contractOwner, \"Caller is not contract owner\");\n        _;\n    }\n\n    /**\n    * @dev Modifier that requires the \"Caller\" account is authorized\n    */\n    modifier requireIsCallerAuthorized()\n    {\n        require(authorizedContracts[msg.sender] == true, \"Caller is not authorized\");\n        _;\n    } \n\n    /**\n    * @dev Modifier that requires the \"Airline\" is registred\n    */\n    modifier requireIsAirlineRegistred(address _airline)\n    {\n        require(airlines[_airline].isRegistered, \"Airline is not registred\");\n        _;\n    }\n\n    /**\n    * @dev Modifier that requires the \"Airline\" is funded\n    */\n    modifier requireIsAirlineFunded(address _airline)\n    {\n        require(airlines[_airline].isFunded, \"Airline is not funded\");\n        _;\n    }\n\n    /**\n    * @dev Modifier that requires the \"passenger\" has a flight insurance\n    */\n    modifier requirePassenger(address _passenger) {\n        require(insuredPassengers[_passenger].isRegistered, \"Invalid passenger address\");\n        _;\n    }\n\n    /********************************************************************************************/\n    /*                                       UTILITY FUNCTIONS                                  */\n    /********************************************************************************************/\n\n    /**\n    * @dev Get operating status of contract\n    *\n    * @return A bool that is the current operating status\n    */      \n    function isOperational() public view returns(bool) \n    {\n        return operational;\n    }\n\n    /**\n    * @dev Sets contract operations on/off\n    *\n    * When operational mode is disabled, all write transactions except for this one will fail\n    */    \n    function setOperatingStatus(bool mode) external requireContractOwner \n    {\n        operational = mode;\n    }\n\n    /**\n    * @dev authorize caller (contract address)\n    */   \n    function authorizeCaller(address contractAddress) external requireContractOwner\n    {\n        authorizedContracts[contractAddress] = true;\n    }\n\n    /**\n    * @dev unauthorize caller \n    */ \n    function deauthorizeCaller(address contractAddress) external requireContractOwner\n    {\n        delete authorizedContracts[contractAddress];\n    }\n\n    /**\n    * @dev Get authorize caller state\n    * @return A bool that is the current caller status\n    */ \n    function isCallerAuthorized(address contractAddress) public view requireContractOwner\n    returns (bool)\n    {\n        return authorizedContracts[contractAddress];\n    }\n\n    /**\n    * @dev check the registration of the airline\n    *\n    * @return A bool that is the state of airline registration\n    */      \n    function isRegistered(address airline) public view returns(bool) \n    {\n        return airlines[airline].isRegistered;\n    }\n\n    /**\n    * @dev check if airline is funded\n    *\n    * @return A bool that is the state of airline\n    */      \n    function isFunded(address airline) public view returns(bool) \n    {\n        return airlines[airline].isFunded;\n    }\n\n    /**\n    * @dev check pasenger registration\n    *\n    * @return  bool value\n    */      \n    function isPassenger(address _address) public view returns(bool) \n    {\n        return insuredPassengers[_address].isRegistered;\n    }\n\n    /********************************************************************************************/\n    /*                                     SMART CONTRACT FUNCTIONS                             */\n    /********************************************************************************************/\n\n\n   /**\n    * @dev Add an airline to the registration queue\n    *      Can only be called from FlightSuretyApp contract\n    *\n    */   \n    function registerAirline(address _newAirline) external \n    requireIsOperational \n    //requireIsCallerAuthorized \n    requireIsAirlineRegistred(tx.origin)\n    requireIsAirlineFunded(tx.origin)\n    returns(bool)\n    {\n        require(_newAirline != address(0), 'Invalid airline address');\n        require(!airlines[_newAirline].isRegistered, \"Airline is already registered.\");\n        airlines[_newAirline] = Airline({isRegistered: true, isFunded: false, airlineAddress: _newAirline});\n        registeredAirlines.push(_newAirline);\n        return airlines[_newAirline].isRegistered;\n        //emit AirlineRegistred(_newAirline);\n    }\n\n    /**\n    * @dev Get registred airlines\n    * @return list of adresses \n    */ \n    function getRegisteredAirlines() external view returns(address[] memory) \n    {\n        return registeredAirlines;\n    }\n\n    /**\n    * @dev Get number of the registred airlines\n    * @return uint  \n    */ \n    function getNumberOfRegistredAirline() external view returns(uint256) \n    {\n        return registeredAirlines.length;\n    }\n  \n     /**\n    * @dev Initial funding for the insurance. Unless there are too many delayed flights\n    *      resulting in insurance payouts, the contract should be self-sustaining\n    *\n    */\n    function fundAirline() external\n        requireIsOperational\n       // requireIsCallerAuthorized\n        requireIsAirlineRegistred(tx.origin)\n    {\n        airlines[tx.origin].isFunded = true;\n        activeAirlines.push(tx.origin);\n        emit AirlineFunded(tx.origin);\n    }\n\n     /**\n    * @dev Get funded airlines\n    * @return list of adresses \n    */ \n    function getFundedAirlines() external view returns(address[] memory) \n    {\n        return activeAirlines;\n    }\n\n\n    /**\n    * @dev register passenger\n    */\n    function registerPassenger(address _address) public   \n    {\n        insuredPassengers[_address] = Passenger({passengerAddress: _address , credit: 0, isRegistered: true});\n        passengers.push(_address);\n        emit PassengerRegidtered(_address);\n    }\n\n    /**\n    * @dev Get passenges addresses\n    * @return list of adresses \n    */ \n    function getPassengers() external view returns(address[] memory) \n    {\n        return passengers;\n    }\n\n    /**\n    * @dev Get the flight key\n    *\n    */ \n    function getFlightKey(address airline, string calldata flight, uint256 timestamp) pure external returns(bytes32) \n    {\n        return keccak256(abi.encodePacked(airline, flight, timestamp));\n    }\n\n   /**\n    * @dev Buy insurance for a flight\n    *\n    */   \n    function buy(bytes32 flightKey, uint256 amount) external payable requireIsOperational \n    //requireIsCallerAuthorized \n    requirePassenger(msg.sender)\n    {\n        require(allFlights[msg.sender].length >= 0 , \"passenger has already an incurence for this flight\");\n        boughtIncurence[flightKey].push(msg.sender);\n        insuredFlight[msg.sender][flightKey] = amount;\n        emit PassengerInsured(msg.sender, flightKey);\n    }\n\n    function getAddress(bytes32 flightKey) public returns(address[] memory){\n        return boughtIncurence[flightKey];\n    }\n\n    /**\n     *  @dev Credits payouts to insurees\n    */\n    function creditInsurees(bytes32 flightKey) external payable requireIsOperational \n    //requireIsCallerAuthorized\n    {\n        require(boughtIncurence[flightKey].length >= 0 , \"The flight does not have insurance recorded\");\n        for(uint i = 0; i < boughtIncurence[flightKey].length; i++) \n        {\n            address _passengerAddress = boughtIncurence[flightKey][i];\n            uint256 insurenceAmount = insuredFlight[msg.sender][flightKey];\n            insuredPassengers[_passengerAddress].credit.add(insurenceAmount.div(10).mul(15));\n        }\n        emit PassengerCreditUpdated(boughtIncurence[flightKey], flightKey);\n    }\n\n    /**\n     *  @dev Transfers eligible payout funds to insuree\n     *\n    */\n    function pay() external payable requireIsOperational \n    //requireIsCallerAuthorized \n    requirePassenger(msg.sender)\n    {\n        require(insuredPassengers[msg.sender].credit > 0, \"There is no payout\");\n        uint amount  = insuredPassengers[msg.sender].credit;\n        insuredPassengers[msg.sender].credit = 0;\n        (msg.sender).transfer(amount);\n        emit PassengerPayout(msg.sender, amount);\n    } \n\n    /**\n    * @dev Initial funding for the insurance. Unless there are too many delayed flights\n    *      resulting in insurance payouts, the contract should be self-sustaining\n    *\n    */\n    function fund() public payable\n    {\n    }\n\n    /**\n    * @dev Fallback function for funding smart contract.\n    *\n    */\n    function()  external  payable \n    {\n        fund();\n    }\n\n}",
  "sourcePath": "/home/wafa/Desktop/FlightSurety/contracts/FlightSuretyData.sol",
  "compiler": {
    "name": "solc",
    "version": "0.5.8+commit.23d335f2.Emscripten.clang"
  },
  "schemaVersion": "3.0.9",
  "updatedAt": "2019-05-13T03:55:52.316Z",
  "devdoc": {
    "methods": {
      "authorizeCaller(address)": {
        "details": "authorize caller (contract address)"
      },
      "buy(bytes32,uint256)": {
        "details": "Buy insurance for a flight    "
      },
      "constructor": {
        "details": "Constructor     The deploying account becomes contractOwner"
      },
      "creditInsurees(bytes32)": {
        "details": "Credits payouts to insurees"
      },
      "deauthorizeCaller(address)": {
        "details": "unauthorize caller "
      },
      "fund()": {
        "details": "Initial funding for the insurance. Unless there are too many delayed flights     resulting in insurance payouts, the contract should be self-sustaining    "
      },
      "fundAirline()": {
        "details": "Initial funding for the insurance. Unless there are too many delayed flights     resulting in insurance payouts, the contract should be self-sustaining    "
      },
      "getFlightKey(address,string,uint256)": {
        "details": "Get the flight key    "
      },
      "getFundedAirlines()": {
        "details": "Get funded airlines",
        "return": "list of adresses "
      },
      "getNumberOfRegistredAirline()": {
        "details": "Get number of the registred airlines",
        "return": "uint  "
      },
      "getPassengers()": {
        "details": "Get passenges addresses",
        "return": "list of adresses "
      },
      "getRegisteredAirlines()": {
        "details": "Get registred airlines",
        "return": "list of adresses "
      },
      "isCallerAuthorized(address)": {
        "details": "Get authorize caller state",
        "return": "A bool that is the current caller status"
      },
      "isFunded(address)": {
        "details": "check if airline is funded",
        "return": "A bool that is the state of airline"
      },
      "isOperational()": {
        "details": "Get operating status of contract",
        "return": "A bool that is the current operating status"
      },
      "isPassenger(address)": {
        "details": "check pasenger registration",
        "return": "bool value"
      },
      "isRegistered(address)": {
        "details": "check the registration of the airline",
        "return": "A bool that is the state of airline registration"
      },
      "pay()": {
        "details": "Transfers eligible payout funds to insuree    "
      },
      "registerAirline(address)": {
        "details": "Add an airline to the registration queue     Can only be called from FlightSuretyApp contract    "
      },
      "registerPassenger(address)": {
        "details": "register passenger"
      },
      "setOperatingStatus(bool)": {
        "details": "Sets contract operations on/off    * When operational mode is disabled, all write transactions except for this one will fail"
      }
    }
  },
  "userdoc": {
    "methods": {}
  }
}